:100000000C9480000C94A1000C94A1000C94A1000D
:100010000C94A1000C94A1000C94A1000C94A100DC
:100020000C94A1000C94A1000C94A1000C94A100CC
:100030000C94A1000C94A1000C94A1000C94A100BC
:100040000C94A1000C94FD020C94A1000C94A1004E
:100050000C94A1000C94A1000C94A1000C94A1009C
:100060000C94A1000C9459030C94A1000C94A100D1
:100070000C94A1000C94A1000C94A1000C94A1007C
:100080000C94A1000C94A1000C94A1000C94A1006C
:100090000C94A1000C94A1000C94A1000C94A1005C
:1000A0000C94A1000C94A1000C94A1000C94A1004C
:1000B0000C94A1000C94A1000C94A1000C94A1003C
:1000C0000C94A1000C94A1000C94A1000C94A1002C
:1000D0000C94A1000C94A1000C94A1000C94A1001C
:1000E0000C94A1000C9414010C9450010C94A300E6
:1000F0000C9400010C9428010C94A3010C943C0175
:1001000011241FBECFEFD1E2DEBFCDBF00E00CBF98
:1001100013E0A0E0B2E0E0E4F0E100E00BBF02C0D9
:1001200007900D92AA37B107D9F729E0AAE7B3E003
:1001300001C01D92A633B207E1F70E94B9040C94E6
:100140001E080C9400009AECC92E95E0D92E81E08F
:1001500090E09C012A5C354079012EE0A22E22E03D
:10016000B22E30E4932EF8948091CD03882309F4C5
:1001700041C08AECC82E85E0D82EE60104C036E0E6
:10018000CA30D307D1F187010C0F1D1F8BE893E014
:100190000E94270489938091CD038111F0CFF8014B
:1001A000E653FA4F1082F60101900020E9F7CF01E3
:1001B0008B5C9540029750F0DF92CF92BF92AF9246
:1001C0000E9433050F900F900F900F90F601292D8C
:1001D00011922A95E9F778943FEF83ED90E331503F
:1001E00080409040E1F700C00000F8948091CD037A
:1001F0008111BFCF10E000E0D2CF00E410E0CFCFFC
:1002000087E192E00E944D05F8940E9451040E94FB
:10021000830478942FEF83ED90E321508040904049
:10022000E1F700C00000ECCF8AE192E00E944D05AA
:10023000F8940E9451040E94830478942FEF83ED78
:1002400090E3215080409040E1F700C00000ECCFE7
:100250008DE192E00E944D05F8940E9451040E94A5
:10026000830478942FEF83ED90E3215080409040F9
:10027000E1F700C00000ECCF80E292E00E944D0563
:10028000F8940E9451040E94830478942FEF83ED28
:1002900090E3215080409040E1F700C00000ECCF97
:1002A0008A3049F09091C00095FFFCCF8093C60042
:1002B00090E080E008959091C00095FFFCCF9DE014
:1002C0009093C600EFCF9093C5008093C40086E062
:1002D0008093C20088E98093C10008959091C00086
:1002E00095FFFCCF8093C60008958091C00087FFE2
:1002F000FCCF8091C60008958091C000881F882798
:10030000881F0895FC012081222351F0319690919D
:10031000C00095FFFCCF2093C60021912111F7CF9B
:10032000089580E092E0909333098093320910920F
:10033000C50082E38093C40086E08093C20088E910
:100340008093C10008957894A0918903B0918A03A5
:10035000109789F01296ED91FC911397309759F010
:1003600014966D917D918D919C9117971995A091FF
:100370008903B0918A0381E052968C9308950F937C
:100380001F93FC01538342830483158326833783A1
:10039000138612861186108682E0828B83EA91E0B2
:1003A000DB018C9311979C9311971C9211971C92CF
:1003B00011971C9211971C9211971C9211971C92E5
:1003C00011971C9211971C9211971C9211971C92D5
:1003D00011971C9211971C9211971C9211971C92C5
:1003E00011971C9211971C9211971C9211971C92B5
:1003F00011971C9211971C9211971C9267517109C9
:10040000718360831F910F910895CF93DF93DC0177
:10041000ED91FC911197309799F014968C91149767
:10042000813091F0C085D185FB87EA871196DC93F6
:10043000CE93815014968C93118610861386128663
:10044000CF01DF91CF91089513961C921E921297BF
:1004500011961C921E92EDCFDB011A962D913C91C4
:100460001B97232B11F08FEF089518962D913C9137
:100470001997232BC1F7FC0124812223B9F00280B4
:10048000F381E02D71876087DB011B96FC93EE936F
:100490001A9719961C921E921897FC017383628317
:1004A0002F5FDC0114962C9380E0089571836083A4
:1004B000738362831B967C936E931A9719961C9292
:1004C0001E9218972F5FDC0114962C9380E00895FC
:1004D0000F931F93CF93DF93FC01C081D1818CE2F6
:1004E00092E00E944D052097E9F007E312E089852C
:1004F0008F9388858F938B858F938A858F93DF93D6
:10050000CF931F930F930E9433050884D985C02D84
:10051000EDB7FEB738960FB6F894FEBF0FBEEDBF2D
:10052000209729F78FE492E0DF91CF911F910F91EF
:100530000C944D052F923F924F925F926F927F9253
:100540008F929F92AF92BF92CF92DF92EF92FF92E3
:100550000F931F93CF93DF930BB60F920CB60F92AE
:100560000DB71EB7C82FD92F08831983C62FD72FD1
:10057000088119810DBF1EBF0F900CB60F900BB6EE
:10058000DF91CF911F910F91FF90EF90DF90CF906F
:10059000BF90AF909F908F907F906F905F904F90A3
:1005A0003F902F900895C82FD92F088119810DBF32
:1005B0001EBF0F900CB60F900BB6DF91CF911F911D
:1005C0000F91FF90EF90DF90CF90BF90AF909F90F2
:1005D0008F907F906F905F904F903F902F901895E5
:1005E0008AE698E1909389008093880082E0809366
:1005F0006F008CE08093810008951F920F920FB6D8
:100600000F9211240BB60F922F933F934F935F934A
:100610006F937F938F939F93AF93BF93EF93FF93CA
:100620000E943A03FF91EF91BF91AF919F918F91FB
:100630007F916F915F914F913F912F910F900BBEE2
:100640000F900FBE0F901F901895F89484E893E0D8
:100650000E94050290938A0380938903892B41F0BD
:100660000E94F0028091890390918A030C94D30236
:100670000E942E05CF93DF93C0918903D0918A0306
:10068000BE0184E893E00E942C0284E893E00E947B
:10069000050290938A03809389038C179D0731F09C
:1006A000BC01CE01DF91CF910C949A02DF91CF91E2
:1006B00008951F920F920FB60F9211240BB60F924E
:1006C0002F933F934F935F936F937F938F939F935A
:1006D000AF93BF93CF93DF93EF93FF93F894609121
:1006E000C6008EE495E00E9406047894C0918903C8
:1006F000D0918A03BE0184E893E00E942C0284E832
:1007000093E00E94050290938A0380938903C8179F
:10071000D90721F0BC01CE010E949A02FF91EF910E
:10072000DF91CF91BF91AF919F918F917F916F9109
:100730005F914F913F912F910F900BBE0F900FBE85
:100740000F901F901895009789F0FC01E05CFF4F17
:100750001082319610823196108220E4FC011192B1
:100760002A95E9F78EE792E00C944D0588E592E032
:100770000C944D05EF92FF920F931F93CF93DF934D
:100780000097D1F17C0189EC92E09F938F930E94B6
:100790003305E7018701005C1F4F0F900F9089918F
:1007A00090E00E944705C017D107C9F78AE090E0A2
:1007B0000E944705F701EE5BFF4F80811F928F93E8
:1007C000319780811F928F9388811F928F938AED3A
:1007D00092E09F938F930E9433058DB79EB7089642
:1007E0000FB6F8949EBF0FBE8DBFDF91CF911F91C2
:1007F0000F91FF90EF90089586EA92E0DF91CF91FC
:100800001F910F91FF90EF900C944D05FC01E05C5F
:10081000FF4F208130E0A9014F5F5F4F4F73552795
:10082000DC01AF5BBF4F7C917417150661F0280F98
:10083000391FD9016C934083FC01EE5BFF4F80812F
:100840008F5F808308958AE193E00C944D05FC014D
:10085000EF5BFF4F2081DC01A05CBF4F3C91321762
:1008600099F030E0DC01A20FB31F4C911C922F5F76
:100870003F4F2F7333272083FC01EE5BFF4F9081A6
:1008800091509083842F08958BE493E00E944D054E
:100890004FEF842F0895E1ECF0E080818068808341
:1008A000089580919005811110C060918903709125
:1008B0008A038FE793E00E942C02E0918903F09174
:1008C0008A0383E0828B0E943A0320918F058091F6
:1008D0008E05821791F030E0F901E25BFA4F8081DA
:1008E00010822F5F3F4F2F73332720938F059091F6
:1008F000900591509093900508958BE493E00E94A9
:100900004D058FEF0895CF93C82F8091CD0380348C
:10091000D1F08091CB0390E09C012F5F3F4F2F736C
:1009200033274091CC0342171306F1F085579C4FB3
:10093000FC01C0832093CB038091CD038F5F809314
:10094000CD03CF9108956091890370918A038AE75E
:1009500093E00E942C02E0918903F0918A0383E0E6
:10096000828B0E943A03D5CF8AE193E0CF910C9419
:100970004D050F931F930E9491010E944B048EE43A
:1009800095E00E94A3038BE893E00E94A303EAECA6
:10099000F5E080E4DF011D928A95E9F700E010E0C0
:1009A000980143EA50E06DE475E081E995E00E942A
:1009B000BF0100E010E0980140E051E06DEC74E010
:1009C00087EB95E00E94BF0100E010E0980144E150
:1009D00051E06FE279E084EA95E00E94BF0100E017
:1009E00010E0980148E251E069E078E08DE198E09C
:1009F0000E94BF0100E010E098014CE351E069E083
:100A000077E08AE098E00E94BF0167EB75E084E838
:100A100093E00E942C0264EA75E084E893E00E946F
:100A20002C026DE178E084E893E00E942C026AE0F9
:100A300078E084E893E00E942C0261E975E084E8A4
:100A400093E00E942C0283E292E00E944D050E94F6
:100A5000250390E080E01F910F91089581E090E0E0
:100A6000F8940C941E08CF93DF93CDB7DEB7AE0198
:100A70004A5F5F4FFA0161917191AF018091320934
:100A8000909133090E947805DF91CF91089560918C
:100A90003209709133090C9490070F931F93CF93F1
:100AA000DF93E0913209F09133092381EC0110E0EA
:100AB00000E021FD08C00FEF1FEF14C01995892B2E
:100AC00011F00FEF1FEF8991609132097091330996
:100AD000DB011896ED91FC918111F0CF8AE0199518
:100AE000892B49F7C801DF91CF911F910F9108958C
:100AF0002F923F924F925F926F927F928F929F922E
:100B0000AF92BF92CF92DF92EF92FF920F931F931B
:100B1000CF93DF9300D000D000D01F921F92CDB7AB
:100B2000DEB77C013B018A01FC01178216828381BA
:100B300081FFDDC1CE0101965C01F7019381F301D4
:100B400093FD859193FF81913F01882309F453C15F
:100B5000853239F493FD859193FF81913F01853270
:100B600029F4B70190E00E949007E7CF912C212C47
:100B7000312CFFE1F31538F08B3211F190F4803213
:100B800009F1833229F137FC3CC020ED280F2A30CF
:100B900050F536FE20C08AE0989E200D1124922E3A
:100BA00006C08D3291F0803371F7689430F8F3010C
:100BB00093FD859193FF81913F018111DACF21C08F
:100BC000689431F8689432F8F2CF689433F8EFCF34
:100BD000689434F8ECCFEAE02E9E200D1124222EEA
:100BE000689435F8E4CF8E3229F436FC04C1689459
:100BF00036F8DDCF8C3619F4689437F8D8CF8836BC
:100C0000B1F2982F9F7D95549330E0F08336A1F197
:100C10008337C1F1833509F063C02801F2E04F0E3C
:100C2000511CF801C080D180692D70E036FC02C0F3
:100C30006FEF7FEFC6010E947A074C01689437F886
:100C400082010AC00C5F1F4FFFE3F983882483945D
:100C5000912C6501E89437F833FE2DC0522C811495
:100C6000910471F5552009F468CFB70180E290E056
:100C70000E9490075A94F6CFF801808189830E5F15
:100C80001F4FE4CF2801F2E04F0E511CF801C08045
:100C9000D180692D70E036FC02C06FEF7FEFC60196
:100CA0000E9485074C018201D5CFB70180E290E018
:100CB0000E9490072A942814190409F0B0F7CECFA7
:100CC000F60137FC859137FE81916F01B70190E005
:100CD0000E94900751105A94F1E08F1A9108BFCFEB
:100CE000843619F0893609F077C0F80137FE6BC0F9
:100CF00060817181828193810C5F1F4FF32DFF769C
:100D00003F2E97FF09C090958095709561957F4F14
:100D10008F4F9F4F689437F82AE030E0A5010E947A
:100D2000C007C82ECA188C2C432C36FE0CC0E89481
:100D300040F8C91440F434FE05C032FC03C0F32D62
:100D4000FE7E4F2E892C44FEAAC0FE01EC0DF11D43
:100D50008081803309F09CC0242D297E422E842D71
:100D60008870582E43FCAAC040FEA4C09C2C82145C
:100D700018F42C0C922C981844FEA6C0B70180E3FE
:100D800090E00E94900742FE09C088E790E041FE93
:100D900002C088E590E0B7010E949007C91408F4EA
:100DA0009FC0CA94D12C9FEFC91AD90ACA0CDB1C68
:100DB000F60182916F01B70190E00E949007AC1498
:100DC000BD04B1F74FCF60817181072E000C880BF5
:100DD000990B0E5F1F4F92CFD32CE894D4F82AE0E2
:100DE00030E08537E1F1232D297FD22E8F36A9F10E
:100DF000F0F4883551F1F701868197812B960FB673
:100E0000F894DEBF0FBECDBFDF91CF911F910F9140
:100E1000FF90EF90DF90CF90BF90AF909F908F901A
:100E20007F906F905F904F903F902F900895803704
:100E300049F0883701F7D4FE02C06894D2F820E167
:100E400030E00DC06894D4F8F6CF34FE03C0822F92
:100E50008660D82E20E132E002C028E030E0F801C0
:100E6000D7FE0FC060817181828193810C5F1F4F1B
:100E7000A5010E94C007C82ECA183D2CE89437F877
:100E800052CF6081718190E080E00E5F1F4FF0CF04
:100E900042FC02C0839463CF8394839460CF842DFB
:100EA000867809F45CCFF6CFB70180E290E00E942B
:100EB000900783948214C0F3512C5ECF522C5818A3
:100EC000821408F459CFF8CF842D867809F466CFC0
:100ED0008BE241FE80E247FC8DE2B70190E05CCFFF
:100EE000B70180E390E00E9490079A9457CF8FEF6C
:100EF0009FEF84CFFC010590615070400110D8F73E
:100F0000809590958E0F9F1F0895FC016150704051
:100F100001900110D8F7809590958E0F9F1F08952E
:100F20000F931F93CF93DF93182F092FEB018B8122
:100F300081FD09C01FEF0FEF812F902FDF91CF911F
:100F40001F910F91089582FF14C02E813F818C81E3
:100F50009D81281739073CF4E881F981CF0101967A
:100F60009983888310838E819F8101969F838E83CE
:100F7000E3CFE885F985812F1995892BA1F3DACF85
:100F8000FA01AA27283051F1203181F1E8946F93BA
:100F90006E7F6E5F7F4F8F4F9F4FAF4FB1E03ED060
:100FA000B4E03CD0670F781F891F9A1FA11D680FFE
:100FB000791F8A1F911DA11D6A0F711D811D911D31
:100FC000A11D20D009F468943F912AE0269F1124A6
:100FD0003019305D3193DEF6CF010895462F47700A
:100FE000405D4193B3E00FD0C9F7F6CF462F4F7065
:100FF000405D4A3318F0495D31FD4052419302D0C3
:10100000A9F7EACFB4E0A695979587957795679568
:10101000BA95C9F700976105710508959B01AC0168
:101020000A2E06945795479537952795BA95C9F78F
:10103000620F731F841F951FA01D0895F894FFCFA2
:1010400000000002000000005001000000005258A3
:101050003A202573200A007031007032007033008E
:101060007034007374617274696E670073746172B6
:10107000742D6C697374005B633A2025702C2070AA
:101080003A2025702C206E3A2025705D0A200065DC
:101090006E642D6C697374005B6275666665724977
:1010A0006E6974202D3E204572726F72655D2062FC
:1010B0007566666572203D3D204E554C4C005B6266
:1010C0007566666572496E69745D2042756666650F
:1010D000722063726561746F20636F6E2073756335
:1010E000636573736F005B627566666572496E66F1
:1010F0006F202D3E204572726F7265215D427566CC
:10110000666572204E554C4C005B62756666657272
:10111000202D3E20646174615D005B6275666665CA
:1011200072202D3E20686561645D202575200A5B74
:10113000627566666572202D3E207461696C5D2063
:101140002575200A5B627566666572202D3E2073E8
:10115000697A655D202575200A005B6275666665A3
:101160007257726974655D2042756666657220709B
:1011700069656E6F2C20696D706F73736962696C3D
:1011800065207363726976657265005B6275666679
:101190006572526561645D2042756666657220768F
:1011A000756F746F2C20696D706F73736962696CF1
:0A11B00065206C65676765726500D5
:00000001FF
