:100000000C947A000C949B000C949B000C949B0025
:100010000C949B000C949B000C949B000C949B00F4
:100020000C949B000C949B000C949B000C949B00E4
:100030000C949B000C949B000C949B000C949B00D4
:100040000C949B000C94A0020C949B000C949B00BD
:100050000C949B000C949B000C949B000C949B00B4
:100060000C949B000C9414030C9477030C949B0049
:100070000C949B000C949B000C949B000C949B0094
:100080000C949B000C949B000C949B000C949B0084
:100090000C949B000C949B000C949B000C949B0074
:1000A0000C949B000C949B000C949B000C949B0064
:1000B0000C949B000C949B000C949B000C949B0054
:1000C0000C949B000C949B000C949B000C949B0044
:1000D0000C949B000C949B000C949B000C949B0034
:1000E0000C949B000C94E0000C94F0000C949D0088
:1000F0000C94430111241FBECFEFD1E2DEBFCDBF70
:1001000000E00CBF13E0A0E0B2E0E0EDF0E100E0C1
:100110000BBF02C007900D92A636B107D9F728E0B1
:10012000A6E6B3E001C01D92A23DB207E1F70E942E
:1001300013050C9466080C94000003E617E0D0E465
:10014000F894F894809162058823A1F0C091B707D4
:1001500080E295E00E946704EC2FF0E0ED59F84F43
:1001600080838091B7078F5F8093B7078091620586
:100170008111ECCF7894E091B707F0E0ED59F84F9A
:100180001082F80101900020E9F7CF0184569740D2
:10019000029720F083E697E00E949505F8012D2F45
:1001A00011922A95E9F71092B70778948FEF91EEA4
:1001B000E4E081509040E040E1F700C00000C0CF93
:1001C000F8940E9491040E94B80478942FEF81EE75
:1001D00094E0215080409040E1F700C00000F0CF53
:1001E0008A3049F09091C00095FFFCCF8093C60003
:1001F00090E080E008959091C00095FFFCCF9DE0D5
:100200009093C600EFCF9093C5008093C40086E022
:100210008093C20088E98093C10008959091C00046
:1002200095FFFCCF8093C60008958091C00087FFA2
:10023000FCCF8091C60008958091C000881F882758
:10024000881F0895FC012081222351F0319690915E
:10025000C00095FFFCCF2093C60021912111F7CF5C
:10026000089580E092E09093CF088093CE0810929A
:10027000C50080E18093C40086E08093C20088E9D5
:100280008093C10008957894A0917003B091710398
:10029000109789F01296ED91FC911397309759F0D1
:1002A00014966D917D918D919C9117971995A091C0
:1002B0007003B091710381E053968C930895EF928F
:1002C0000F931F93FC01538342830483158326837A
:1002D0003783E086148613861286118682E0838B2C
:1002E00083E491E0DB018C9311979C9311971C920E
:1002F00011971C9211971C9211971C9211971C92A6
:1003000011971C9211971C9211971C9211971C9295
:1003100011971C9211971C9211971C9211971C9285
:1003200011971C9211971C9211971C9211971C9275
:1003300011971C9211971C9211971C9211971C9265
:1003400067517109718360831F910F91EF90089538
:10035000CF93DF93DC01ED91FC911197309799F0E9
:1003600014968C911497813091F0C185D285FC87C9
:10037000EB871196DC93CE93815014968C93128662
:10038000118614861386CF01DF91CF9108951396BD
:100390001C921E92129711961C921E92EDCFDB01B9
:1003A0001B962D913C911C97232B11F08FEF0895F4
:1003B00019962D913C911A97232BC1F7FC012481AA
:1003C0002223B9F00280F381E02D72876187DB017F
:1003D0001C96FC93EE931B971A961C921E921997EB
:1003E000FC01738362832F5FDC0114962C9380E001
:1003F000089571836083738362831C967C936E93EC
:100400001B971A961C921E9219972F5FDC01149667
:100410002C9380E008950F931F93CF93DF93FC01FB
:10042000C081D18187E192E00E9495052097E9F093
:1004300002E212E08A858F9389858F938C858F9352
:100440008B858F93DF93CF931F930F930E947B0530
:100450000984DA85C02DEDB7FEB738960FB6F8944B
:10046000FEBF0FBEEDBF209729F78AE392E0DF9130
:10047000CF911F910F910C9495052F923F924F921F
:100480005F926F927F928F929F92AF92BF92CF9224
:10049000DF92EF92FF920F931F93CF93DF930BB6F0
:1004A0000F920CB60F920DB71EB7C82FD92F088325
:1004B0001983C62FD72F088119810DBF1EBF0F903A
:1004C0000CB60F900BB6DF91CF911F910F91FF905B
:1004D000EF90DF90CF90BF90AF909F908F907F90E4
:1004E0006F905F904F903F902F900895C82FD92F15
:1004F000088119810DBF1EBF0F900CB60F900BB66F
:10050000DF91CF911F910F91FF90EF90DF90CF90EF
:10051000BF90AF909F908F907F906F905F904F9023
:100520003F902F9018958AE698E1909389008093E8
:10053000880082E080936F008CE0809381000895B2
:100540001F920F920FB60F9211240BB60F922F939A
:100550003F934F935F936F937F938F939F93AF934B
:10056000BF93EF93FF930E94DD02FF91EF91BF9144
:10057000AF919F918F917F916F915F914F913F913B
:100580002F910F900BBE0F900FBE0F901F901895DC
:10059000F8948BE693E00E94A801909371038093F6
:1005A0007003892B41F00E94930280917003909117
:1005B00071030C9476020E947605CF93DF93C0916D
:1005C0007003D09171038885811117C083E08B8BF4
:1005D000BE0186E693E00E94CF010E94E7048823D3
:1005E000B9F060917003709171036C177D07C9F0C9
:1005F000CE01DF91CF910C943D0283E08B8BBE0145
:100600008BE693E00E94CF010E94E7048111E9CFBD
:100610000E94FC0460917003709171036C177D0758
:1006200039F7DF91CF9108951F920F920FB60F9275
:1006300011240BB60F922F933F934F935F936F93B9
:100640007F938F939F93AF93BF93CF93DF93EF935A
:10065000FF93F8942F9A6091C6006A30C1F16D3013
:10066000B1F185EB94E00E9446047894C091700348
:10067000D0917103888581112CC083E08B8BBE01E2
:1006800086E693E00E94CF010E94E704882361F18F
:100690006091700370917103C617D70719F0CE01EE
:1006A0000E943D02FF91EF91DF91CF91BF91AF91F9
:1006B0009F918F917F916F915F914F913F912F917A
:1006C0000F900BBE0F900FBE0F901F90189560E01B
:1006D000C8CF83E08B8BBE018BE693E00E94CF01F5
:1006E0000E94E7048111D4CF0E94FC04D1CF1F9255
:1006F0000F920FB60F9211240BB60F922F933F93C8
:100700004F935F936F937F938F939F93AF93BF9319
:10071000CF93DF93EF93FF93F8948091B40381110B
:1007200046C08091C1008F7D8093C1002F9878943E
:10073000C0917003D0917103888581112AC083E034
:100740008B8BBE0186E693E00E94CF010E94E704F6
:10075000882351F16091700370917103C617D70718
:1007600019F0CE010E943D02FF91EF91DF91CF91F0
:10077000BF91AF919F918F917F916F915F914F91B9
:100780003F912F910F900BBE0F900FBE0F901F90B7
:10079000189583E08B8BBE018BE693E00E94CF011E
:1007A0000E94E7048111D6CF0E94FC04D3CF82E7D8
:1007B00093E00E9467048093C600682F80E295E072
:1007C0000E944604B3CF009789F0FC01E05CFF4F24
:1007D0001082319610823196108220E4FC01119231
:1007E0002A95E9F789E692E00C94950583E492E076
:1007F0000C949505EF92FF920F931F93CF93DF9385
:100800000097D1F17C0184EB92E09F938F930E943B
:100810007B05E7018701005C1F4F0F900F908991C6
:1008200090E00E948F05C017D107C9F78AE090E0D9
:100830000E948F05F701EE5BFF4F80811F928F931F
:10084000319780811F928F9388811F928F9385ECBF
:1008500092E09F938F930E947B058DB79EB7089679
:100860000FB6F8949EBF0FBE8DBFDF91CF911F9141
:100870000F91FF90EF90089581E992E0DF91CF9181
:100880001F910F91FF90EF900C949505FC01E05C97
:10089000FF4F208130E0A9014F5F5F4F4F73552715
:1008A000DC01AF5BBF4F7C917417150661F0280F18
:1008B000391FD9016C934083FC01EE5BFF4F8081AF
:1008C0008F5F8083089585E093E00C949505FC018B
:1008D000EF5BFF4F2081DC01A05CBF4F3C913217E2
:1008E00099F030E0DC01A20FB31F4C911C922F5FF6
:1008F0003F4F2F7333272083FC01EE5BFF4F908126
:1009000091509083842F089586E393E00E9495058B
:100910004FEF842F0895E1ECF0E0808180688083C0
:1009200008958091F704811102C00E94DD02F894BD
:100930002091F6048091F504821799F030E0F901D6
:10094000EB54FB4F808110822F5F3F4F2F73332773
:100950002093F6049091F70491509093F7047894C3
:10096000089586E393E00E9495058FEF78940895AB
:10097000CF93C82F8091B403803408F5F894809108
:10098000B20390E09C012F5F3F4F2F7333274091BC
:10099000B30342171306B1F08E589C4FFC01C0837D
:1009A0002093B2038091B4038F5F8093B403789453
:1009B0008091C10080628093C100CF9108950E9410
:1009C000DD02DCCF85E093E00E949505F0CF8091B9
:1009D000F704882321F080916F03811101C00895ED
:1009E0008BE693E00E94A801FC01138A90937103A7
:1009F0008093700381E008958091B403803428F4DB
:100A000080916A03811103C0089580E0089586E60D
:100A100093E00E94A801FC01138A909371038093D4
:100A2000700381E00895EF920F931F930E943101AC
:100A3000789485EB94E00E94E30382E793E00E94C0
:100A4000E303279A2F98EE24E39400E010E0980146
:100A500040EE50E064EB74E08CE095E00E945F01B2
:100A600000E010E0980140EE50E06BEC78E088EF99
:100A700094E00E945F01E12C00E010E098014DE954
:100A800050E062E677E088EB97E00E945F0100E0CB
:100A900010E098014DE950E062E676E083EA97E0E5
:100AA0000E945F016CE075E08BE693E00E94CF014D
:100AB00068EF74E08BE693E00E94CF0168EB77E08B
:100AC00086E693E00E94CF0163EA77E086E693E052
:100AD0000E94CF018EE092E00E9495050E94C8021C
:100AE00090E080E01F910F91EF90089581E090E0F9
:100AF000F8940C946608CF93DF93CDB7DEB7AE01C0
:100B00004A5F5F4FFA0161917191AF018091CE0808
:100B10009091CF080E94C005DF91CF910895609118
:100B2000CE087091CF080C94D8070F931F93CF93E2
:100B3000DF93E091CE08F091CF082381EC0110E023
:100B400000E021FD08C00FEF1FEF14C01995892B9D
:100B500011F00FEF1FEF89916091CE087091CF08CF
:100B6000DB011896ED91FC918111F0CF8AE0199587
:100B7000892B49F7C801DF91CF911F910F910895FB
:100B80002F923F924F925F926F927F928F929F929D
:100B9000AF92BF92CF92DF92EF92FF920F931F938B
:100BA000CF93DF9300D000D000D01F921F92CDB71B
:100BB000DEB77C013B018A01FC011782168283812A
:100BC00081FFDDC1CE0101965C01F7019381F30144
:100BD00093FD859193FF81913F01882309F453C1CF
:100BE000853239F493FD859193FF81913F018532E0
:100BF00029F4B70190E00E94D807E7CF912C212C6F
:100C0000312CFFE1F31538F08B3211F190F4803282
:100C100009F1833229F137FC3CC020ED280F2A303E
:100C200050F536FE20C08AE0989E200D1124922EA9
:100C300006C08D3291F0803371F7689430F8F3017B
:100C400093FD859193FF81913F018111DACF21C0FE
:100C5000689431F8689432F8F2CF689433F8EFCFA3
:100C6000689434F8ECCFEAE02E9E200D1124222E59
:100C7000689435F8E4CF8E3229F436FC04C16894C8
:100C800036F8DDCF8C3619F4689437F8D8CF88362B
:100C9000B1F2982F9F7D95549330E0F08336A1F107
:100CA0008337C1F1833509F063C02801F2E04F0EAC
:100CB000511CF801C080D180692D70E036FC02C063
:100CC0006FEF7FEFC6010E94C2074C01689437F8AE
:100CD00082010AC00C5F1F4FFFE3F98388248394CD
:100CE000912C6501E89437F833FE2DC0522C811405
:100CF000910471F5552009F468CFB70180E290E0C6
:100D00000E94D8075A94F6CFF801808189830E5F3C
:100D10001F4FE4CF2801F2E04F0E511CF801C080B4
:100D2000D180692D70E036FC02C06FEF7FEFC60105
:100D30000E94CD074C018201D5CFB70180E290E03F
:100D40000E94D8072A942814190409F0B0F7CECFCE
:100D5000F60137FC859137FE81916F01B70190E074
:100D60000E94D80751105A94F1E08F1A9108BFCF12
:100D7000843619F0893609F077C0F80137FE6BC068
:100D800060817181828193810C5F1F4FF32DFF760B
:100D90003F2E97FF09C090958095709561957F4F84
:100DA0008F4F9F4F689437F82AE030E0A5010E94EA
:100DB0000808C82ECA188C2C432C36FE0CC0E894A8
:100DC00040F8C91440F434FE05C032FC03C0F32DD2
:100DD000FE7E4F2E892C44FEAAC0FE01EC0DF11DB3
:100DE0008081803309F09CC0242D297E422E842DE1
:100DF0008870582E43FCAAC040FEA4C09C2C8214CC
:100E000018F42C0C922C981844FEA6C0B70180E36D
:100E100090E00E94D80742FE09C088E790E041FEBA
:100E200002C088E590E0B7010E94D807C91408F411
:100E30009FC0CA94D12C9FEFC91AD90ACA0CDB1CD7
:100E4000F60182916F01B70190E00E94D807AC14BF
:100E5000BD04B1F74FCF60817181072E000C880B64
:100E6000990B0E5F1F4F92CFD32CE894D4F82AE051
:100E700030E08537E1F1232D297FD22E8F36A9F17D
:100E8000F0F4883551F1F701868197812B960FB6E2
:100E9000F894DEBF0FBECDBFDF91CF911F910F91B0
:100EA000FF90EF90DF90CF90BF90AF909F908F908A
:100EB0007F906F905F904F903F902F900895803774
:100EC00049F0883701F7D4FE02C06894D2F820E1D7
:100ED00030E00DC06894D4F8F6CF34FE03C0822F02
:100EE0008660D82E20E132E002C028E030E0F80130
:100EF000D7FE0FC060817181828193810C5F1F4F8B
:100F0000A5010E940808C82ECA183D2CE89437F89D
:100F100052CF6081718190E080E00E5F1F4FF0CF73
:100F200042FC02C0839463CF8394839460CF842D6A
:100F3000867809F45CCFF6CFB70180E290E00E949A
:100F4000D80783948214C0F3512C5ECF522C5818CA
:100F5000821408F459CFF8CF842D867809F466CF2F
:100F60008BE241FE80E247FC8DE2B70190E05CCF6E
:100F7000B70180E390E00E94D8079A9457CF8FEF93
:100F80009FEF84CFFC010590615070400110D8F7AD
:100F9000809590958E0F9F1F0895FC0161507040C1
:100FA00001900110D8F7809590958E0F9F1F08959E
:100FB0000F931F93CF93DF93182F092FEB018B8192
:100FC00081FD09C01FEF0FEF812F902FDF91CF918F
:100FD0001F910F91089582FF14C02E813F818C8153
:100FE0009D81281739073CF4E881F981CF010196EA
:100FF0009983888310838E819F8101969F838E833E
:10100000E3CFE885F985812F1995892BA1F3DACFF4
:10101000FA01AA27283051F1203181F1E8946F9329
:101020006E7F6E5F7F4F8F4F9F4FAF4FB1E03ED0CF
:10103000B4E03CD0670F781F891F9A1FA11D680F6D
:10104000791F8A1F911DA11D6A0F711D811D911DA0
:10105000A11D20D009F468943F912AE0269F112415
:101060003019305D3193DEF6CF010895462F477079
:10107000405D4193B3E00FD0C9F7F6CF462F4F70D4
:10108000405D4A3318F0495D31FD4052419302D032
:10109000A9F7EACFB4E0A6959795879577956795D8
:1010A000BA95C9F700976105710508959B01AC01D8
:1010B0000A2E06945795479537952795BA95C9F7FF
:1010C000620F731F841F951FA01D0895F894FFCF12
:1010D0000000000200000000F00000000000737437
:1010E000617274696E670073746172742D6C6973D8
:1010F00074005B633A2025702C20703A2025702CF8
:10110000206E3A2025705D0A2000656E642D6C69A2
:101110007374005B627566666572496E6974202D32
:101120003E204572726F72655D20627566666572FB
:10113000203D3D204E554C4C005B627566666572E5
:10114000496E69745D2042756666657220637265DA
:1011500061746F20636F6E20737563636573736F63
:10116000005B627566666572496E666F202D3E2073
:101170004572726F7265215D427566666572204EBA
:10118000554C4C005B627566666572202D3E20648E
:101190006174615D005B627566666572202D3E203C
:1011A000686561645D202575200A5B627566666509
:1011B00072202D3E207461696C5D202575200A5BCC
:1011C000627566666572202D3E2073697A655D20C2
:1011D0002575200A005B62756666657257726974D0
:1011E000655D20427566666572207069656E6F2C5C
:1011F00020696D706F73736962696C6520736372C7
:101200006976657265005B627566666572526561D6
:10121000645D204275666665722076756F746F2C0A
:1012200020696D706F73736962696C65206C6567A6
:0612300067657265000015
:00000001FF
