:100000000C9480000C94A1000C94A1000C94A1000D
:100010000C94A1000C94A1000C94A1000C94A100DC
:100020000C94A1000C94A1000C94A1000C94A100CC
:100030000C94A1000C94A1000C94A1000C94A100BC
:100040000C94A1000C94CD020C94A1000C94A1007E
:100050000C94A1000C94A1000C94A1000C94A1009C
:100060000C94A1000C942D030C9484030C94A10017
:100070000C94A1000C94A1000C94A1000C94A1007C
:100080000C94A1000C94A1000C94A1000C94A1006C
:100090000C94A1000C94A1000C94A1000C94A1005C
:1000A0000C94A1000C94A1000C94A1000C94A1004C
:1000B0000C94A1000C94A1000C94A1000C94A1003C
:1000C0000C94A1000C94A1000C94A1000C94A1002C
:1000D0000C94A1000C94A1000C94A1000C94A1001C
:1000E0000C94A1000C941C010C94EA000C942001C7
:1000F0000C94A3000C941A010C9473010C941E012F
:1001000011241FBECFEFD1E2DEBFCDBF00E00CBF98
:1001100013E0A0E0B2E0E6E2F1E100E00BBF02C0D4
:1001200007900D92A636B107D9F729E0A6E6B3E00D
:1001300001C01D92A636B207E1F70E942E050C946D
:1001400091080C94000010924C0809EF17E0D0E4DD
:10015000F894F8948091F8058823A1F0C0914C0898
:1001600086EB95E00E946804EC2FF0E0E750F84F32
:10017000808380914C088F5F80934C088091F805B4
:100180008111ECCF7894E0914C08F0E0E750F84F03
:100190001082F80101900020E9F7CF018A5F9740B3
:1001A000029720F089EF97E00E94C0050E94190590
:1001B000F8012D2F11922A95E9F710924C087894A6
:1001C0008FEF91EEE4E081509040E040E1F700C015
:1001D0000000BECFF89480917C05882341F00E94F6
:1001E00092040E94C70480917C058111F8CF789415
:1001F0002FEF81EE94E0215080409040E1F700C065
:100200000000E8CFF89480917C05882341F00E949B
:1002100092040E94C70480917C058111F8CF7894E4
:100220002FEF81EE94E0215080409040E1F700C034
:100230000000E8CF0E9402010E9402010E94020118
:100240008A3049F09091C00095FFFCCF8093C600A2
:1002500090E080E008959091C00095FFFCCF9DE074
:100260009093C600EFCF9093C5008093C40086E0C2
:100270008093C20088E98093C10008959091C000E6
:1002800095FFFCCF8093C60008958091C00087FF42
:10029000FCCF8091C60008958091C000881F8827F8
:1002A000881F0895FC012081222351F031969091FE
:1002B000C00095FFFCCF2093C60021912111F7CFFC
:1002C000089580E092E09093630980936209109210
:1002D000C50080E18093C40086E08093C20088E975
:1002E0008093C10008957894A0917503B09176032E
:1002F000109789F01296ED91FC911397309759F071
:1003000014966D917D918D919C9117971995A0915F
:100310007503B091760381E052968C9308950F9304
:100320001F93FC0153834283048315832683378301
:10033000138612861186108682E0828B83E791E015
:10034000DB018C9311979C9311971C9211971C922F
:1003500011971C9211971C9211971C9211971C9245
:1003600011971C9211971C9211971C9211971C9235
:1003700011971C9211971C9211971C9211971C9225
:1003800011971C9211971C9211971C9211971C9215
:1003900011971C9211971C9211971C926751710929
:1003A000718360831F910F910895CF93DF93DC01D8
:1003B000ED91FC911197309799F014968C911497C8
:1003C000813091F0C085D185FB87EA871196DC9357
:1003D000CE93815014968C931186108613861286C4
:1003E000CF01DF91CF91089513961C921E92129720
:1003F00011961C921E92EDCFDB011A962D913C9125
:100400001B97232B11F08FEF089518962D913C9197
:100410001997232BC1F7FC0124812223B9F0028014
:10042000F381E02D71876087DB011B96FC93EE93CF
:100430001A9719961C921E921897FC017383628377
:100440002F5FDC0114962C9380E008957183608304
:10045000738362831B967C936E931A9719961C92F2
:100460001E9218972F5FDC0114962C9380E008955C
:100470000F931F93CF93DF93FC01C081D18187E15C
:1004800092E00E94C0052097E9F002E212E089851F
:100490008F9388858F938B858F938A858F93DF9336
:1004A000CF931F930F930E94A6050884D985C02D72
:1004B000EDB7FEB738960FB6F894FEBF0FBEEDBF8E
:1004C000209729F78AE392E0DF91CF911F910F9156
:1004D0000C94C0052F923F924F925F926F927F9241
:1004E0008F929F92AF92BF92CF92DF92EF92FF9244
:1004F0000F931F93CF93DF930BB60F920CB60F920F
:100500000DB71EB7C82FD92F08831983C62FD72F31
:10051000088119810DBF1EBF0F900CB60F900BB64E
:10052000DF91CF911F910F91FF90EF90DF90CF90CF
:10053000BF90AF909F908F907F906F905F904F9003
:100540003F902F900895C82FD92F088119810DBF92
:100550001EBF0F900CB60F900BB6DF91CF911F917D
:100560000F91FF90EF90DF90CF90BF90AF909F9052
:100570008F907F906F905F904F903F902F90189545
:100580008AE698E1909389008093880082E08093C6
:100590006F008CE08093810008951F920F920FB638
:1005A0000F9211240BB60F922F933F934F935F93AB
:1005B0006F937F938F939F93AF93BF93EF93FF932B
:1005C0000E940A03FF91EF91BF91AF919F918F918C
:1005D0007F916F915F914F913F912F910F900BBE43
:1005E0000F900FBE0F901F901895F89480E793E03E
:1005F0000E94D5019093760380937503892B41F077
:100600000E94C00280917503909176030C94A3021E
:100610000E94A105CF93DF93C0917503D09176031B
:10062000BE0180E793E00E94FC010E9404050E9445
:10063000190580E793E00E94D5019093760380939B
:1006400075038C179D0731F0BC01CE01DF91CF916E
:100650000C946A02DF91CF9108951F920F920FB60A
:100660000F9211240BB60F922F933F934F935F93EA
:100670006F937F938F939F93AF93BF93CF93DF93AA
:10068000EF93FF93F8942F9A6091C6006A30D1F1EE
:100690006D30C1F18AE395E00E9447040E94040591
:1006A0007894C0917503D0917603BE0180E793E002
:1006B0000E94FC010E9404050E94190580E793E056
:1006C0000E94D5019093760380937503C817D907CC
:1006D00021F0BC01CE010E946A02FF91EF91DF91EF
:1006E000CF91BF91AF919F918F917F916F915F91CA
:1006F0004F913F912F910F900BBE0F900FBE0F9017
:100700001F90189560E0C6CF1F920F920FB60F9200
:1007100011240BB60F922F933F934F935F936F93D8
:100720007F938F939F93AF93BF93CF93DF93EF9379
:10073000FF93F8948091B90381113AC08091C10070
:100740008F7D8093C1002F980E9419057894C091E5
:100750007503D0917603BE0180E793E00E94FC010F
:100760000E9404050E94190580E793E00E94D501CC
:100770009093760380937503C817D90721F0BC01C5
:10078000CE010E946A02FF91EF91DF91CF91BF915C
:10079000AF919F918F917F916F915F914F913F9119
:1007A0002F910F900BBE0F900FBE0F901F901895BA
:1007B00087E793E00E9468048093C600682F86EB69
:1007C00095E00E944704BFCF009789F0FC01E05CF0
:1007D000FF4F1082319610823196108220E4FC0186
:1007E00011922A95E9F789E692E00C94C00583E41A
:1007F00092E00C94C005EF92FF920F931F93CF935A
:10080000DF930097D1F17C0184EB92E09F938F936B
:100810000E94A605E7018701005C1F4F0F900F9013
:10082000899190E00E94BA05C017D107C9F78AE004
:1008300090E00E94BA05F701EE5BFF4F80811F92A6
:100840008F93319780811F928F9388811F928F930E
:1008500085EC92E09F938F930E94A6058DB79EB77B
:1008600008960FB6F8949EBF0FBE8DBFDF91CF9153
:100870001F910F91FF90EF90089581E992E0DF9131
:10088000CF911F910F91FF90EF900C94C005FC0148
:10089000E05CFF4F208130E0A9014F5F5F4F4F7355
:1008A0005527DC01AF5BBF4F7C917417150661F0D3
:1008B000280F391FD9016C934083FC01EE5BFF4F79
:1008C00080818F5F8083089585E093E00C94C0055C
:1008D000FC01EF5BFF4F2081DC01A05CBF4F3C912E
:1008E000321799F030E0DC01A20FB31F4C911C923B
:1008F0002F5F3F4F2F7333272083FC01EE5BFF4FA9
:10090000908191509083842F089586E393E00E9414
:10091000C0054FEF842F0895E1ECF0E080818068FE
:100920008083089580917C05811110C060917503CA
:10093000709176038BE693E00E94FC01E0917503D1
:10094000F091760383E0828B0E940A03F894209151
:100950007B0580917A05821799F030E0F901E65C19
:10096000FA4F808110822F5F3F4F2F7333272093E0
:100970007B0590917C05915090937C057894089527
:1009800086E393E00E94C0058FEF78940895CF939B
:10099000C82F8091B903803409F1F8948091B7038E
:1009A00090E09C012F5F3F4F2F7333274091B80396
:1009B0004217130621F189589C4FFC01C0832093F4
:1009C000B7038091B9038F5F8093B90378948091C6
:1009D000C10080628093C100CF910895609175033A
:1009E0007091760386E693E00E94FC01E091750326
:1009F000F091760383E0828B0E940A03CECF85E0DC
:100A000093E00E94C005E2CF80917C05882321F00D
:100A100080916F03811101C008958BE693E00E94DD
:100A2000D50122E0FC01228BBC0180E793E00C940D
:100A3000FC018091B903803420F480916A03811114
:100A400001C0089586E693E00E94D50122E0FC01F2
:100A5000228BBC0180E793E00C94FC010F931F9361
:100A60000E94610178948AE395E00E94E40387E79D
:100A700093E00E94E40386EB95E00E94E403279A4A
:100A80002F9800E010E0980143EA50E069E375E038
:100A90008DE795E00E948F0100E010E098014AEE9A
:100AA00050E069EB74E083EA95E00E948F0100E07A
:100AB00010E098014EE151E06FE579E080E995E0C2
:100AC0000E948F0100E010E098014CE151E068EFD6
:100AD00077E08DE498E00E948F0100E010E098013B
:100AE0004AE151E068EF76E089E398E00E948F01E7
:100AF00063EA75E080E793E00E94FC0160E975E03D
:100B000080E793E00E94FC016DE478E080E793E0E9
:100B10000E94FC0169E378E080E793E00E94FC0119
:100B20006DE775E080E793E00E94FC018EE092E0C3
:100B30000E94C0050E94F50290E080E01F910F9195
:100B4000089581E090E0F8940C949108CF93DF939E
:100B5000CDB7DEB7AE014A5F5F4FFA016191719187
:100B6000AF0180916209909163090E94EB05DF91CA
:100B7000CF91089560916209709163090C94030804
:100B80000F931F93CF93DF93E0916209F091630974
:100B90002381EC0110E000E021FD08C00FEF1FEF02
:100BA00014C01995892B11F00FEF1FEF89916091F7
:100BB000620970916309DB011896ED91FC91811136
:100BC000F0CF8AE01995892B49F7C801DF91CF91C1
:100BD0001F910F9108952F923F924F925F926F92C3
:100BE0007F928F929F92AF92BF92CF92DF92EF92BD
:100BF000FF920F931F93CF93DF9300D000D000D0CC
:100C00001F921F92CDB7DEB77C013B018A01FC0128
:100C100017821682838181FFDDC1CE0101965C01BE
:100C2000F7019381F30193FD859193FF81913F013A
:100C3000882309F453C1853239F493FD859193FFDC
:100C400081913F01853229F4B70190E00E940308A9
:100C5000E7CF912C212C312CFFE1F31538F08B32AA
:100C600011F190F4803209F1833229F137FC3CC054
:100C700020ED280F2A3050F536FE20C08AE0989EDD
:100C8000200D1124922E06C08D3291F0803371F721
:100C9000689430F8F30193FD859193FF81913F01B2
:100CA0008111DACF21C0689431F8689432F8F2CF1C
:100CB000689433F8EFCF689434F8ECCFEAE02E9ED6
:100CC000200D1124222E689435F8E4CF8E3229F4B9
:100CD00036FC04C1689436F8DDCF8C3619F468947C
:100CE00037F8D8CF8836B1F2982F9F7D955493303E
:100CF000E0F08336A1F18337C1F1833509F063C099
:100D00002801F2E04F0E511CF801C080D180692DFE
:100D100070E036FC02C06FEF7FEFC6010E94ED0766
:100D20004C01689437F882010AC00C5F1F4FFFE343
:100D3000F98388248394912C6501E89437F833FE75
:100D40002DC0522C8114910471F5552009F468CFFF
:100D5000B70180E290E00E9403085A94F6CFF801B0
:100D6000808189830E5F1F4FE4CF2801F2E04F0E90
:100D7000511CF801C080D180692D70E036FC02C0A2
:100D80006FEF7FEFC6010E94F8074C018201D5CFBB
:100D9000B70180E290E00E9403082A942814190405
:100DA00009F0B0F7CECFF60137FC859137FE81917F
:100DB0006F01B70190E00E94030851105A94F1E0CE
:100DC0008F1A9108BFCF843619F0893609F077C0A1
:100DD000F80137FE6BC060817181828193810C5F65
:100DE0001F4FF32DFF763F2E97FF09C090958095FA
:100DF000709561957F4F8F4F9F4F689437F82AE029
:100E000030E0A5010E943308C82ECA188C2C432C50
:100E100036FE0CC0E89440F8C91440F434FE05C016
:100E200032FC03C0F32DFE7E4F2E892C44FEAAC057
:100E3000FE01EC0DF11D8081803309F09CC0242D52
:100E4000297E422E842D8870582E43FCAAC040FE75
:100E5000A4C09C2C821418F42C0C922C981844FEDC
:100E6000A6C0B70180E390E00E94030842FE09C0DB
:100E700088E790E041FE02C088E590E0B7010E945B
:100E80000308C91408F49FC0CA94D12C9FEFC91A53
:100E9000D90ACA0CDB1CF60182916F01B70190E000
:100EA0000E940308AC14BD04B1F74FCF608171817B
:100EB000072E000C880B990B0E5F1F4F92CFD32C7F
:100EC000E894D4F82AE030E08537E1F1232D297F3A
:100ED000D22E8F36A9F1F0F4883551F1F7018681D1
:100EE00097812B960FB6F894DEBF0FBECDBFDF9172
:100EF000CF911F910F91FF90EF90DF90CF90BF9017
:100F0000AF909F908F907F906F905F904F903F90A9
:100F10002F900895803749F0883701F7D4FE02C03A
:100F20006894D2F820E130E00DC06894D4F8F6CF90
:100F300034FE03C0822F8660D82E20E132E002C04A
:100F400028E030E0F801D7FE0FC060817181828116
:100F500093810C5F1F4FA5010E943308C82ECA1849
:100F60003D2CE89437F852CF6081718190E080E0A9
:100F70000E5F1F4FF0CF42FC02C0839463CF839477
:100F8000839460CF842D867809F45CCFF6CFB701C7
:100F900080E290E00E94030883948214C0F3512CF5
:100FA0005ECF522C5818821408F459CFF8CF842DF4
:100FB000867809F466CF8BE241FE80E247FC8DE241
:100FC000B70190E05CCFB70180E390E00E94030896
:100FD0009A9457CF8FEF9FEF84CFFC01059061501B
:100FE00070400110D8F7809590958E0F9F1F08953F
:100FF000FC016150704001900110D8F780959095E8
:101000008E0F9F1F08950F931F93CF93DF93182F79
:10101000092FEB018B8181FD09C01FEF0FEF812F9D
:10102000902FDF91CF911F910F91089582FF14C0EF
:101030002E813F818C819D81281739073CF4E881FE
:10104000F981CF0101969983888310838E819F81D6
:1010500001969F838E83E3CFE885F985812F1995CB
:10106000892BA1F3DACFFA01AA27283051F12031D8
:1010700081F1E8946F936E7F6E5F7F4F8F4F9F4F2C
:10108000AF4FB1E03ED0B4E03CD0670F781F891F6E
:101090009A1FA11D680F791F8A1F911DA11D6A0F3C
:1010A000711D811D911DA11D20D009F468943F91EF
:1010B0002AE0269F11243019305D3193DEF6CF01EE
:1010C0000895462F4770405D4193B3E00FD0C9F7B4
:1010D000F6CF462F4F70405D4A3318F0495D31FD21
:1010E0004052419302D0A9F7EACFB4E0A695979574
:1010F000879577956795BA95C9F70097610571054A
:1011000008959B01AC010A2E069457954795379593
:101110002795BA95C9F7620F731F841F951FA01DED
:061120000895F894FFCFD2
:1011260000000002000000002001000000007374AF
:10113600617274696E670073746172742D6C697381
:1011460074005B633A2025702C20703A2025702CA1
:10115600206E3A2025705D0A2000656E642D6C694C
:101166007374005B627566666572496E6974202DDC
:101176003E204572726F72655D20627566666572A5
:10118600203D3D204E554C4C005B6275666665728F
:10119600496E69745D204275666665722063726584
:1011A60061746F20636F6E20737563636573736F0D
:1011B600005B627566666572496E666F202D3E201D
:1011C6004572726F7265215D427566666572204E64
:1011D600554C4C005B627566666572202D3E206438
:1011E6006174615D005B627566666572202D3E20E6
:1011F600686561645D202575200A5B6275666665B3
:1012060072202D3E207461696C5D202575200A5B75
:10121600627566666572202D3E2073697A655D206B
:101226002575200A005B6275666665725772697479
:10123600655D20427566666572207069656E6F2C05
:1012460020696D706F73736962696C652073637270
:101256006976657265005B62756666657252656180
:10126600645D204275666665722076756F746F2CB4
:1012760020696D706F73736962696C65206C656750
:06128600676572650000BF
:00000001FF
