:100000000C9480000C94A1000C94A1000C94A1000D
:100010000C94A1000C94A1000C94A1000C94A100DC
:100020000C94A1000C94A1000C94A1000C94A100CC
:100030000C94A1000C94A1000C94A1000C94A100BC
:100040000C94A1000C94D6020C94A1000C94A10075
:100050000C94A1000C94A1000C94A1000C94A1009C
:100060000C94A1000C9436030C94A1000C948A0308
:100070000C94A1000C94A1000C94A1000C94A1007C
:100080000C94A1000C94A1000C94A1000C94A1006C
:100090000C94A1000C94A1000C94A1000C94A1005C
:1000A0000C94A1000C94A1000C94A1000C94A1004C
:1000B0000C94A1000C94A1000C94A1000C94A1003C
:1000C0000C94A1000C94A1000C94A1000C94A1002C
:1000D0000C94A1000C94A1000C94A1000C94A1001C
:1000E0000C94A1000C9429010C94A3000C947C01A5
:1000F0000C9427010C9403010C9423010C9425010A
:1001000011241FBECFEFD1E2DEBFCDBF00E00CBF98
:1001100013E0A0E0B2E0E6E1F1E100E00BBF02C0D5
:1001200007900D92AE36B107D9F729E0AEE6B3E0FD
:1001300001C01D92AA32B207E1F70E9424050C9477
:1001400089080C9400009EEBC92E95E0D92E81E021
:1001500090E09C012E5B354079012EE0A22E22E03A
:10016000B22E30E4932EF8948091C103882309F4D1
:1001700044C08EEBC82E85E0D82EE60105C035E0E0
:10018000CE3FD30709F43CC087010C0F1D1F8FE73A
:1001900093E00E94620489938091C1038111EFCFA3
:1001A000F801E254FA4F1082F60101900020E9F7BD
:1001B000CF018F5B9540029750F0DF92CF92BF92B4
:1001C000AF920E949E050F900F900F900F900E948B
:1001D0000F05F601292D11922A95E9F778943FEF42
:1001E00081EE94E0315080409040E1F700C0000083
:1001F000F8948091C1038111BCCF10E000E0D0CF12
:1002000000E410E0CDCFF8940E9492040E94C40450
:1002100078942FEF81EE94E0215080409040E1F7F8
:1002200000C00000F0CFF8940E9492040E94C40421
:1002300078942FEF81EE94E0215080409040E1F7D8
:1002400000C00000F0CF0E9413010E9413010E9421
:1002500013018A3049F09091C00095FFFCCF809344
:10026000C60090E080E008959091C00095FFFCCF1B
:100270009DE09093C600EFCF9093C5008093C4009B
:1002800086E08093C20088E98093C1000895909130
:10029000C00095FFFCCF8093C60008958091C000F8
:1002A00087FFFCCF8091C60008958091C000881F11
:1002B0008827881F0895FC012081222351F0319660
:1002C0009091C00095FFFCCF2093C6002191211191
:1002D000F7CF089580E092E0909327098093260954
:1002E0001092C50080E18093C40086E08093C20034
:1002F00088E98093C10008957894A0917D03B0911E
:100300007E03109789F01296ED91FC911397309728
:1003100059F014966D917D918D919C911797199537
:10032000A0917D03B0917E0381E052968C93089555
:100330000F931F93FC015383428304831583268309
:100340003783138612861186108682E0828B8CE7B3
:1003500091E0DB018C9311979C9311971C9211975C
:100360001C9211971C9211971C9211971C92119735
:100370001C9211971C9211971C9211971C92119725
:100380001C9211971C9211971C9211971C92119715
:100390001C9211971C9211971C9211971C92119705
:1003A0001C9211971C9211971C9211971C926751E5
:1003B0007109718360831F910F910895CF93DF932B
:1003C000DC01ED91FC911197309799F014968C9186
:1003D0001497813091F0C085D185FB87EA8711960B
:1003E000DC93CE93815014968C93118610861386DD
:1003F0001286CF01DF91CF91089513961C921E9221
:10040000129711961C921E92EDCFDB011A962D9138
:100410003C911B97232B11F08FEF089518962D9187
:100420003C911997232BC1F7FC0124812223B9F0B9
:100430000280F381E02D71876087DB011B96FC93BE
:10044000EE931A9719961C921E921897FC017383CB
:1004500062832F5FDC0114962C9380E008957183F2
:100460006083738362831B967C936E931A971996AD
:100470001C921E9218972F5FDC0114962C9380E03B
:1004800008950F931F93CF93DF93FC01C081D18117
:1004900080E292E00E94B8052097E9F00BE212E0BA
:1004A00089858F9388858F938B858F938A858F938A
:1004B000DF93CF931F930F930E949E050884D985E5
:1004C000C02DEDB7FEB738960FB6F894FEBF0FBE3D
:1004D000EDBF209729F783E492E0DF91CF911F9140
:1004E0000F910C94B8052F923F924F925F926F92AA
:1004F0007F928F929F92AF92BF92CF92DF92EF92B4
:10050000FF920F931F93CF93DF930BB60F920CB60E
:100510000F920DB71EB7C82FD92F08831983C62F86
:10052000D72F088119810DBF1EBF0F900CB60F90F9
:100530000BB6DF91CF911F910F91FF90EF90DF905D
:10054000CF90BF90AF909F908F907F906F905F9073
:100550004F903F902F900895C82FD92F088119816F
:100560000DBF1EBF0F900CB60F900BB6DF91CF9151
:100570001F910F91FF90EF90DF90CF90BF90AF90C1
:100580009F908F907F906F905F904F903F902F90B3
:1005900018958AE698E1909389008093880082E01C
:1005A00080936F008CE08093810008951F920F92DA
:1005B0000FB60F9211240BB60F922F933F934F93C8
:1005C0005F936F937F938F939F93AF93BF93EF93BB
:1005D000FF930E941303FF91EF91BF91AF919F9101
:1005E0008F917F916F915F914F913F912F910F90DC
:1005F0000BBE0F900FBE0F901F901895F89488E7D0
:1006000093E00E94DE0190937E0380937D03892B0B
:1006100041F00E94C90280917D0390917E030C9469
:10062000AC020E949905CF93DF93C0917D03D091D6
:100630007E03BE0188E793E00E9405020E94FA044F
:100640000E940F0588E793E00E94DE0190937E03ED
:1006500080937D038C179D0731F0BC01CE01DF91A3
:10066000CF910C947302DF91CF9108951F920F9256
:100670000FB60F9211240BB60F922F933F934F9307
:100680005F936F937F938F939F93AF93BF93CF931A
:10069000DF93EF93FF93F8946091C60080918405F7
:1006A000803420F482E495E00E9441040E94FA0420
:1006B0007894C0917D03D0917E03BE0188E793E0DA
:1006C0000E9405020E94FA040E940F0588E793E049
:1006D0000E94DE0190937E0380937D03C817D907A3
:1006E00021F0BC01CE010E947302FF91EF91DF91D6
:1006F000CF91BF91AF919F918F917F916F915F91BA
:100700004F913F912F910F900BBE0F900FBE0F9006
:100710001F9018951F920F920FB60F9211240BB6CF
:100720000F922F933F934F935F936F937F938F938A
:100730009F93AF93BF93CF93DF93EF93FF93F8947F
:100740008091C103882331F08FE793E00E94620417
:100750008093C6000E940F057894C0917D03D091CC
:100760007E03BE0188E793E00E9405020E94FA041E
:100770000E940F0588E793E00E94DE0190937E03BC
:1007800080937D03C817D90721F0BC01CE010E94D8
:100790007302FF91EF91DF91CF91BF91AF919F9144
:1007A0008F917F916F915F914F913F912F910F901A
:1007B0000BBE0F900FBE0F901F901895009789F0F9
:1007C000FC01E05CFF4F108231961082319610825E
:1007D00020E4FC0111922A95E9F782E792E00C945B
:1007E000B8058CE492E00C94B805EF92FF920F9359
:1007F0001F93CF93DF930097D1F17C018DEB92E0B3
:100800009F938F930E949E05E7018701005C1F4F15
:100810000F900F90899190E00E94B205C017D10708
:10082000C9F78AE090E00E94B205F701EE5BFF4F46
:1008300080811F928F93319780811F928F9388813F
:100840001F928F938EEC92E09F938F930E949E0550
:100850008DB79EB708960FB6F8949EBF0FBE8DBF9A
:10086000DF91CF911F910F91FF90EF9008958AE94A
:1008700092E0DF91CF911F910F91FF90EF900C9438
:10088000B805FC01E05CFF4F208130E0A9014F5F1B
:100890005F4F4F735527DC01AF5BBF4F7C917417DF
:1008A000150661F0280F391FD9016C934083FC01B4
:1008B000EE5BFF4F80818F5F808308958EE093E031
:1008C0000C94B805FC01EF5BFF4F2081DC01A05CBC
:1008D000BF4F3C91321799F030E0DC01A20FB31FFB
:1008E0004C911C922F5F3F4F2F7333272083FC01C5
:1008F000EE5BFF4F908191509083842F08958FE39A
:1009000093E00E94B8054FEF842F0895E1ECF0E0EA
:100910008081806880830895E1ECF0E080818064CC
:100920008083089580918405811110C060917D03BA
:1009300070917E0383E793E00E940502E0917D03BE
:10094000F0917E0383E0828B0E9413032091830544
:1009500080918205821791F030E0F901EE5BFA4F49
:10096000808110822F5F3F4F2F73332720938305A1
:100970009091840591509093840508958FE393E0BE
:100980000E94B8058FEF0895CF93C82F8091C103BF
:100990008034D1F08091BF0390E09C012F5F3F4FE6
:1009A0002F7333274091C00342171306F1F081588B
:1009B0009C4FFC01C0832093BF038091C1038F5FD4
:1009C0008093C103CF91089560917D0370917E0360
:1009D0008EE693E00E940502E0917D03F0917E0394
:1009E00083E0828B0E941303D5CF8EE093E0CF91FA
:1009F0000C94B80580918405882321F080917703B9
:100A0000811101C0089583E793E00E94DE0122E096
:100A1000FC01228BBC0188E793E00C9405028091D5
:100A2000C103803420F480917203811101C00895C4
:100A30008EE693E00E94DE0122E0FC01228BBC01E5
:100A400088E793E00C9405020F931F930E946A01BC
:100A50000E94860482E495E00E94DE038FE793E023
:100A60000E94DE03EEEBF5E080E4DF011D928A9543
:100A7000E9F700E010E0980143EA50E061E475E036
:100A800085E895E00E94980100E010E0980143E0BD
:100A900051E061EC74E08BEA95E00E94980100E07F
:100AA00010E0980147E251E063E279E088E995E0DF
:100AB0000E94980100E010E0980145E251E06DEFDE
:100AC00077E081E198E00E94980100E010E0980151
:100AD00043E251E06DEF76E08EEF97E00E949801DF
:100AE0006BEA75E088E793E00E94050268E975E02B
:100AF00088E793E00E94050261E178E088E793E0EF
:100B00000E9405026EEF77E088E793E00E940502FD
:100B100065E875E088E793E00E94050287E192E0CE
:100B20000E94B8050E94FE0290E080E01F910F91A4
:100B3000089581E090E0F8940C948908CF93DF93B6
:100B4000CDB7DEB7AE014A5F5F4FFA016191719197
:100B5000AF0180912609909127090E94E305DF915A
:100B6000CF91089560912609709127090C94FB0795
:100B70000F931F93CF93DF93E0912609F0912709FC
:100B80002381EC0110E000E021FD08C00FEF1FEF12
:100B900014C01995892B11F00FEF1FEF8991609107
:100BA000260970912709DB011896ED91FC918111BE
:100BB000F0CF8AE01995892B49F7C801DF91CF91D1
:100BC0001F910F9108952F923F924F925F926F92D3
:100BD0007F928F929F92AF92BF92CF92DF92EF92CD
:100BE000FF920F931F93CF93DF9300D000D000D0DC
:100BF0001F921F92CDB7DEB77C013B018A01FC0139
:100C000017821682838181FFDDC1CE0101965C01CE
:100C1000F7019381F30193FD859193FF81913F014A
:100C2000882309F453C1853239F493FD859193FFEC
:100C300081913F01853229F4B70190E00E94FB07C2
:100C4000E7CF912C212C312CFFE1F31538F08B32BA
:100C500011F190F4803209F1833229F137FC3CC064
:100C600020ED280F2A3050F536FE20C08AE0989EED
:100C7000200D1124922E06C08D3291F0803371F731
:100C8000689430F8F30193FD859193FF81913F01C2
:100C90008111DACF21C0689431F8689432F8F2CF2C
:100CA000689433F8EFCF689434F8ECCFEAE02E9EE6
:100CB000200D1124222E689435F8E4CF8E3229F4C9
:100CC00036FC04C1689436F8DDCF8C3619F468948C
:100CD00037F8D8CF8836B1F2982F9F7D955493304E
:100CE000E0F08336A1F18337C1F1833509F063C0A9
:100CF0002801F2E04F0E511CF801C080D180692D0F
:100D000070E036FC02C06FEF7FEFC6010E94E5077E
:100D10004C01689437F882010AC00C5F1F4FFFE353
:100D2000F98388248394912C6501E89437F833FE85
:100D30002DC0522C8114910471F5552009F468CF0F
:100D4000B70180E290E00E94FB075A94F6CFF801C9
:100D5000808189830E5F1F4FE4CF2801F2E04F0EA0
:100D6000511CF801C080D180692D70E036FC02C0B2
:100D70006FEF7FEFC6010E94F0074C018201D5CFD3
:100D8000B70180E290E00E94FB072A94281419041E
:100D900009F0B0F7CECFF60137FC859137FE81918F
:100DA0006F01B70190E00E94FB0751105A94F1E0E7
:100DB0008F1A9108BFCF843619F0893609F077C0B1
:100DC000F80137FE6BC060817181828193810C5F75
:100DD0001F4FF32DFF763F2E97FF09C0909580950A
:100DE000709561957F4F8F4F9F4F689437F82AE039
:100DF00030E0A5010E942B08C82ECA188C2C432C69
:100E000036FE0CC0E89440F8C91440F434FE05C026
:100E100032FC03C0F32DFE7E4F2E892C44FEAAC067
:100E2000FE01EC0DF11D8081803309F09CC0242D62
:100E3000297E422E842D8870582E43FCAAC040FE85
:100E4000A4C09C2C821418F42C0C922C981844FEEC
:100E5000A6C0B70180E390E00E94FB0742FE09C0F4
:100E600088E790E041FE02C088E590E0B7010E946B
:100E7000FB07C91408F49FC0CA94D12C9FEFC91A6C
:100E8000D90ACA0CDB1CF60182916F01B70190E010
:100E90000E94FB07AC14BD04B1F74FCF6081718194
:100EA000072E000C880B990B0E5F1F4F92CFD32C8F
:100EB000E894D4F82AE030E08537E1F1232D297F4A
:100EC000D22E8F36A9F1F0F4883551F1F7018681E1
:100ED00097812B960FB6F894DEBF0FBECDBFDF9182
:100EE000CF911F910F91FF90EF90DF90CF90BF9027
:100EF000AF909F908F907F906F905F904F903F90BA
:100F00002F900895803749F0883701F7D4FE02C04A
:100F10006894D2F820E130E00DC06894D4F8F6CFA0
:100F200034FE03C0822F8660D82E20E132E002C05A
:100F300028E030E0F801D7FE0FC060817181828126
:100F400093810C5F1F4FA5010E942B08C82ECA1861
:100F50003D2CE89437F852CF6081718190E080E0B9
:100F60000E5F1F4FF0CF42FC02C0839463CF839487
:100F7000839460CF842D867809F45CCFF6CFB701D7
:100F800080E290E00E94FB0783948214C0F3512C0E
:100F90005ECF522C5818821408F459CFF8CF842D04
:100FA000867809F466CF8BE241FE80E247FC8DE251
:100FB000B70190E05CCFB70180E390E00E94FB07AF
:100FC0009A9457CF8FEF9FEF84CFFC01059061502B
:100FD00070400110D8F7809590958E0F9F1F08954F
:100FE000FC016150704001900110D8F780959095F8
:100FF0008E0F9F1F08950F931F93CF93DF93182F8A
:10100000092FEB018B8181FD09C01FEF0FEF812FAD
:10101000902FDF91CF911F910F91089582FF14C0FF
:101020002E813F818C819D81281739073CF4E8810E
:10103000F981CF0101969983888310838E819F81E6
:1010400001969F838E83E3CFE885F985812F1995DB
:10105000892BA1F3DACFFA01AA27283051F12031E8
:1010600081F1E8946F936E7F6E5F7F4F8F4F9F4F3C
:10107000AF4FB1E03ED0B4E03CD0670F781F891F7E
:101080009A1FA11D680F791F8A1F911DA11D6A0F4C
:10109000711D811D911DA11D20D009F468943F91FF
:1010A0002AE0269F11243019305D3193DEF6CF01FE
:1010B0000895462F4770405D4193B3E00FD0C9F7C4
:1010C000F6CF462F4F70405D4A3318F0495D31FD31
:1010D0004052419302D0A9F7EACFB4E0A695979584
:1010E000879577956795BA95C9F70097610571055A
:1010F00008959B01AC010A2E0694579547953795A4
:101100002795BA95C9F7620F731F841F951FA01DFD
:061110000895F894FFCFE2
:1011160000000002000000002901000000005258F3
:101126003A202573200A007374617274696E670031
:1011360073746172742D6C697374005B633A202555
:10114600702C20703A2025702C206E3A2025705D78
:101156000A2000656E642D6C697374005B627566A7
:10116600666572496E6974202D3E204572726F72F3
:10117600655D20627566666572203D3D204E554C64
:101186004C005B627566666572496E69745D2042E5
:1011960075666665722063726561746F20636F6E33
:1011A60020737563636573736F005B62756666654E
:1011B60072496E666F202D3E204572726F726521F0
:1011C6005D427566666572204E554C4C005B6275D5
:1011D60066666572202D3E20646174615D005B6207
:1011E6007566666572202D3E20686561645D202502
:1011F60075200A5B627566666572202D3E207461F5
:10120600696C5D202575200A5B62756666657220CD
:101216002D3E2073697A655D202575200A005B6284
:10122600756666657257726974655D204275666695
:101236006572207069656E6F2C20696D706F7373AF
:101246006962696C65207363726976657265005BB5
:10125600627566666572526561645D204275666692
:1012660065722076756F746F2C20696D706F73735D
:0E1276006962696C65206C656767657265006A
:00000001FF
