:100000000C9478000C9499000C9499000C9499002D
:100010000C9499000C9499000C9499000C949900FC
:100020000C9499000C9499000C9499000C949900EC
:100030000C9499000C9499000C9499000C949900DC
:100040000C9499000C947D020C9499000C949900E6
:100050000C9499000C9499000C9499000C949900BC
:100060000C9499000C94F1020C9454030C94990094
:100070000C9499000C9499000C9499000C9499009C
:100080000C9499000C9499000C9499000C9499008C
:100090000C9499000C9499000C9499000C9499007C
:1000A0000C9499000C9499000C9499000C9499006C
:1000B0000C9499000C9499000C9499000C9499005C
:1000C0000C9499000C9499000C9499000C9499004C
:1000D0000C9499000C9499000C9499000C9499003C
:1000E0000C9499000C949B000C9420010C94DC005F
:1000F00011241FBECFEFD1E2DEBFCDBF00E00CBFA9
:1001000012E0A0E0B2E0E6E9F0E100E00BBF02C0DF
:1001100007900D92AC33B107D9F72AE0ACE3B2E017
:1001200001C01D92A53AB207E1F70E94B4040C94F5
:1001300049080C94000086E7C82E85E0D82E96E783
:10014000A92E98E0B92E760100E012E04501C0E04A
:10015000D1E0F894FF92EF921F930F939F928F92AA
:100160000E947305F60101900020E9F7CF0187573F
:1001700095400F900F900F900F900F900F90029757
:1001800020F086E798E00E945404F501CE01119218
:100190000197E9F7F601CE0111920197E9F7109264
:1001A0009E0978949FEFE1EEF4E09150E040F0403A
:1001B000E1F700C00000CDCFF8940E940C04E0915C
:1001C0009E09AE2FB0E0AA58BA4F8C93EF5FE09330
:1001D0009E09F0E0EA58FA4F108278942FEF81EEF2
:1001E00094E0215080409040E1F700C00000E4CF4F
:1001F0009093C5008093C40086E08093C20088E994
:100200008093C10008959091C00095FFFCCF80932A
:10021000C60008958091C00087FFFCCF8091C60082
:100220000895FC012081222351F031969091C00065
:1002300095FFFCCF2093C60021912111F7CF08959F
:100240007894A0914602B0914702109789F01296D7
:10025000ED91FC911397309759F014966D917D9123
:100260008D919C9117971995A0914602B0914702E4
:1002700081E053968C930895EF920F931F93FC01A6
:10028000538342830483158326833783E086148651
:1002900013861286118682E0838B80E291E0DB0177
:1002A0008C9311979C9311971C9211971C92119704
:1002B0001C9211971C9211971C9211971C921197E6
:1002C0001C9211971C9211971C9211971C921197D6
:1002D0001C9211971C9211971C9211971C921197C6
:1002E0001C9211971C9211971C9211971C921197B6
:1002F0001C9211971C9211971C926751710971837E
:1003000060831F910F91EF900895CF93DF93DC01ED
:10031000ED91FC911197309799F014968C91149768
:10032000813091F0C185D285FC87EB871196DC93F3
:10033000CE93815014968C93128611861486138660
:10034000CF01DF91CF91089513961C921E921297C0
:1003500011961C921E92EDCFDB011B962D913C91C4
:100360001C97232B11F08FEF089519962D913C9136
:100370001A97232BC1F7FC0124812223B9F00280B4
:10038000F381E02D72876187DB011C96FC93EE936D
:100390001B971A961C921E921997FC017383628315
:1003A0002F5FDC0114962C9380E0089571836083A5
:1003B000738362831C967C936E931B971A961C9290
:1003C0001E9219972F5FDC0114962C9380E00895FC
:1003D0000F931F93CF93DF93FC01C081D1818FE0F6
:1003E00092E00E9448052097E9F00AE112E08A8530
:1003F0008F9389858F938C858F938B858F93DF93D4
:10040000CF931F930F930E9434050984DA85C02D82
:10041000EDB7FEB738960FB6F894FEBF0FBEEDBF2E
:10042000209729F782E392E0DF91CF911F910F91FE
:100430000C9448052F923F924F925F926F927F9259
:100440008F929F92AF92BF92CF92DF92EF92FF92E4
:100450000F931F93CF93DF930BB60F920CB60F92AF
:100460000DB71EB7C82FD92F08831983C62FD72FD2
:10047000088119810DBF1EBF0F900CB60F900BB6EF
:10048000DF91CF911F910F91FF90EF90DF90CF9070
:10049000BF90AF909F908F907F906F905F904F90A4
:1004A0003F902F900895C82FD92F088119810DBF33
:1004B0001EBF0F900CB60F900BB6DF91CF911F911E
:1004C0000F91FF90EF90DF90CF90BF90AF909F90F3
:1004D0008F907F906F905F904F903F902F901895E6
:1004E0008AE698E1909389008093880082E0809367
:1004F0006F008CE08093810008951F920F920FB6D9
:100500000F9211240BB60F922F933F934F935F934B
:100510006F937F938F939F93AF93BF93EF93FF93CB
:100520000E94BA02FF91EF91BF91AF919F918F917D
:100530007F916F915F914F913F912F910F900BBEE3
:100540000F900FBE0F901F901895F89481E492E0E1
:100550000E9485019093470280934602892B41F0C7
:100560000E94700280914602909147020C945302BF
:100570000E942F05CF93DF93C0914602D09147028E
:100580008885811117C083E08B8BBE018CE392E0DC
:100590000E94AC010E948E048823B9F0609146024B
:1005A000709147026C177D07C9F0CE01DF91CF91A2
:1005B0000C941A0283E08B8BBE0181E492E00E94CE
:1005C000AC010E948E048111E9CF0E94A3046091C6
:1005D0004602709147026C177D0739F7DF91CF9182
:1005E00008951F920F920FB60F9211240BB60F921F
:1005F0002F933F934F935F936F937F938F939F932B
:10060000AF93BF93CF93DF93EF93FF93F8942F9A19
:100610006091C6006A30C1F16D30B1F18BE494E0B5
:100620000E94CD037894C0914602D09147028885FC
:1006300081112CC083E08B8BBE018CE392E00E9481
:10064000AC010E948E04882361F160914602709192
:100650004702C617D70719F0CE010E941A02FF9170
:10066000EF91DF91CF91BF91AF919F918F917F914A
:100670006F915F914F913F912F910F900BBE0F9013
:100680000FBE0F901F90189560E0C8CF83E08B8B52
:10069000BE0181E492E00E94AC010E948E048111AF
:1006A000D4CF0E94A304D1CF1F920F920FB60F9206
:1006B00011240BB60F922F933F934F935F936F9339
:1006C0007F938F939F93AF93BF93CF93DF93EF93DA
:1006D000FF93F89480914A03811146C08091C10034
:1006E0008F7D8093C1002F987894C0914602D0915D
:1006F0004702888581112AC083E08B8BBE018CE381
:1007000092E00E94AC010E948E04882351F1609116
:10071000460270914702C617D70719F0CE010E9412
:100720001A02FF91EF91DF91CF91BF91AF919F910D
:100730008F917F916F915F914F913F912F910F908A
:100740000BBE0F900FBE0F901F90189583E08B8B00
:10075000BE0181E492E00E94AC010E948E048111EE
:10076000D6CF0E94A304D3CF88E492E00E94ED0389
:100770008093C600B8CF009779F0FC01F395108202
:10078000319610823196108220E031E0FC01A901FF
:10079000119241505040E1F70895CF93DF93DC016F
:1007A000B3952C91422F50E0EA012196FC01EF5FB6
:1007B000FE4FE081F0E0CE171F0661F0480F591F91
:1007C000FA0160832F5F2C93FC01EE5FFE4F808166
:1007D0008F5F8083DF91CF910895FC01EF5FFE4F23
:1007E0002081DC01B3953C91321769F0DC01A20F46
:1007F000B11D3C911C922F5F2083319690819150C6
:100800009083832F08953FEF832F0895E1ECF0E06C
:10081000808180688083089580914D058823B9F098
:10082000F89490914C0580914B058917C9F0E92FF8
:10083000F0E0E55BFB4F808110829F5F90934C0559
:1008400090914D05915090934D05789408950E9494
:10085000BA02F89490914C0580914B058913E7CF2B
:100860008FEF78940895F89490914803292F30E001
:10087000B9016F5F7F4F4091490350E0641715063F
:1008800061F0285B3D4FF90180839F5F909348039F
:1008900080914A038F5F80934A0378948091C100CE
:1008A00080628093C1000895DC010D900020E9F77B
:1008B0001197A81BB90B89F1FC01BC016A0F7B1FC2
:1008C0008191F89490914803492F50E0DA011196F4
:1008D0002091490330E0A2171306B1F0485B5D4F49
:1008E000DA018C939F5F9093480380914A038F5F56
:1008F00080934A0378948091C10080628093C10004
:10090000E617F707E9F6089578948091C1008062B0
:100910008093C100E617F70799F6089580914D0579
:10092000882321F080914502811101C0089581E45E
:1009300092E00E948501FC01138A90934702809304
:10094000460281E0089580914002811101C008951E
:100950008CE392E00E948501FC01138A9093470288
:100960008093460281E00895EF920F931F9380E1F8
:1009700090E00E94F80078940E9406048BE494E0D2
:100980000E94BB0388E492E00E94BB03279A2F9841
:1009900010929E0980E091E0E6E7F8E0DF019C011B
:1009A0001D9221503040E1F7E6E7F5E0DF019C01C0
:1009B0001D9221503040E1F7EE24E39400E010E076
:1009C00098014CED50E06AE474E082E695E00E9404
:1009D0003C0100E010E098014CED50E06EE97AE057
:1009E0008EE495E00E943C0100E010E098014CED9F
:1009F00050E065E778E08AE899E00E943C01E12C4C
:100A000000E010E098014BE950E065E777E086E709
:100A100099E00E943C0162E675E081E492E00E9468
:100A2000AC016EE475E081E492E00E94AC016AE8FA
:100A300079E081E492E00E94AC0166E779E08CE322
:100A400092E00E94AC0185E092E00E9411010E94B8
:100A5000A50290E080E01F910F91EF90089581E052
:100A600090E0F8940C944908CF93DF93CDB7DEB7AC
:100A7000AE014A5F5F4FFA0161917191AF018091C0
:100A8000A10A9091A20A0E94A305DF91CF91089537
:100A90000F931F93CF93DF93E091A10AF091A20AE5
:100AA0002381EC0110E000E021FD08C00FEF1FEFF3
:100AB00014C01995892B11F00FEF1FEF89916091E8
:100AC000A10A7091A20ADB011896ED91FC918111A7
:100AD000F0CF8AE01995892B49F7C801DF91CF91B2
:100AE0001F910F9108950F931F93CF93DF93CDB76D
:100AF000DEB72E970FB6F894DEBF0FBECDBF0E89BE
:100B00001F8986E08C831A8309838FEF9FE79E837A
:100B10008D83AE01465E5F4F688D798DCE01019663
:100B20000E94A3052F813885020F131FF801108240
:100B30002E960FB6F894DEBF0FBECDBFDF91CF91DA
:100B40001F910F9108952F923F924F925F926F9253
:100B50007F928F929F92AF92BF92CF92DF92EF924D
:100B6000FF920F931F93CF93DF9300D000D000D05C
:100B70001F921F92CDB7DEB77C013B018A01FC01B9
:100B800017821682838181FFDDC1CE0101965C014F
:100B9000F7019381F30193FD859193FF81913F01CB
:100BA000882309F453C1853239F493FD859193FF6D
:100BB00081913F01853229F4B70190E00E94BB0783
:100BC000E7CF912C212C312CFFE1F31538F08B323B
:100BD00011F190F4803209F1833229F137FC3CC0E5
:100BE00020ED280F2A3050F536FE20C08AE0989E6E
:100BF000200D1124922E06C08D3291F0803371F7B2
:100C0000689430F8F30193FD859193FF81913F0142
:100C10008111DACF21C0689431F8689432F8F2CFAC
:100C2000689433F8EFCF689434F8ECCFEAE02E9E66
:100C3000200D1124222E689435F8E4CF8E3229F449
:100C400036FC04C1689436F8DDCF8C3619F468940C
:100C500037F8D8CF8836B1F2982F9F7D95549330CE
:100C6000E0F08336A1F18337C1F1833509F063C029
:100C70002801F2E04F0E511CF801C080D180692D8F
:100C800070E036FC02C06FEF7FEFC6010E94A5073F
:100C90004C01689437F882010AC00C5F1F4FFFE3D4
:100CA000F98388248394912C6501E89437F833FE06
:100CB0002DC0522C8114910471F5552009F468CF90
:100CC000B70180E290E00E94BB075A94F6CFF8018A
:100CD000808189830E5F1F4FE4CF2801F2E04F0E21
:100CE000511CF801C080D180692D70E036FC02C033
:100CF0006FEF7FEFC6010E94B0074C018201D5CF94
:100D0000B70180E290E00E94BB072A9428141904DE
:100D100009F0B0F7CECFF60137FC859137FE81910F
:100D20006F01B70190E00E94BB0751105A94F1E0A7
:100D30008F1A9108BFCF843619F0893609F077C031
:100D4000F80137FE6BC060817181828193810C5FF5
:100D50001F4FF32DFF763F2E97FF09C0909580958A
:100D6000709561957F4F8F4F9F4F689437F82AE0B9
:100D700030E0A5010E94EB07C82ECA188C2C432C2A
:100D800036FE0CC0E89440F8C91440F434FE05C0A7
:100D900032FC03C0F32DFE7E4F2E892C44FEAAC0E8
:100DA000FE01EC0DF11D8081803309F09CC0242DE3
:100DB000297E422E842D8870582E43FCAAC040FE06
:100DC000A4C09C2C821418F42C0C922C981844FE6D
:100DD000A6C0B70180E390E00E94BB0742FE09C0B5
:100DE00088E790E041FE02C088E590E0B7010E94EC
:100DF000BB07C91408F49FC0CA94D12C9FEFC91A2D
:100E0000D90ACA0CDB1CF60182916F01B70190E090
:100E10000E94BB07AC14BD04B1F74FCF6081718154
:100E2000072E000C880B990B0E5F1F4F92CFD32C0F
:100E3000E894D4F82AE030E08537E1F1232D297FCA
:100E4000D22E8F36A9F1F0F4883551F1F701868161
:100E500097812B960FB6F894DEBF0FBECDBFDF9102
:100E6000CF911F910F91FF90EF90DF90CF90BF90A7
:100E7000AF909F908F907F906F905F904F903F903A
:100E80002F900895803749F0883701F7D4FE02C0CB
:100E90006894D2F820E130E00DC06894D4F8F6CF21
:100EA00034FE03C0822F8660D82E20E132E002C0DB
:100EB00028E030E0F801D7FE0FC0608171818281A7
:100EC00093810C5F1F4FA5010E94EB07C82ECA1823
:100ED0003D2CE89437F852CF6081718190E080E03A
:100EE0000E5F1F4FF0CF42FC02C0839463CF839408
:100EF000839460CF842D867809F45CCFF6CFB70158
:100F000080E290E00E94BB0783948214C0F3512CCE
:100F10005ECF522C5818821408F459CFF8CF842D84
:100F2000867809F466CF8BE241FE80E247FC8DE2D1
:100F3000B70190E05CCFB70180E390E00E94BB076F
:100F40009A9457CF8FEF9FEF84CFFC0105906150AB
:100F500070400110D8F7809590958E0F9F1F0895CF
:100F6000FC016150704001900110D8F78095909578
:100F70008E0F9F1F08950F931F93CF93DF93182F0A
:100F8000092FEB018B8181FD09C01FEF0FEF812F2E
:100F9000902FDF91CF911F910F91089582FF14C080
:100FA0002E813F818C819D81281739073CF4E8818F
:100FB000F981CF0101969983888310838E819F8167
:100FC00001969F838E83E3CFE885F985812F19955C
:100FD000892BA1F3DACFFA01AA27283051F1203169
:100FE00081F1E8946F936E7F6E5F7F4F8F4F9F4FBD
:100FF000AF4FB1E03ED0B4E03CD0670F781F891FFF
:101000009A1FA11D680F791F8A1F911DA11D6A0FCC
:10101000711D811D911DA11D20D009F468943F917F
:101020002AE0269F11243019305D3193DEF6CF017E
:101030000895462F4770405D4193B3E00FD0C9F744
:10104000F6CF462F4F70405D4A3318F0495D31FDB1
:101050004052419302D0A9F7EACFB4E0A695979504
:10106000879577956795BA95C9F7009761057105DA
:1010700008959B01AC010A2E069457954795379524
:101080002795BA95C9F7620F731F841F951FA01D7E
:061090000895F894FFCF63
:101096002573200A007374617274696E670A00739F
:1010A600746172742D6C697374005B633A202570E9
:1010B6002C20703A2025702C206E3A2025705D0A6F
:0C10C6002000656E642D6C6973740000DE
:00000001FF
