:100000000C9434000C9451000C9451000C94510049
:100010000C9451000C9451000C9451000C9451001C
:100020000C9451000C9451000C9451000C94DC0180
:100030000C9451000C9451000C9451000C945100FC
:100040000C9451000C9451000C9440020C947002DA
:100050000C9451000C9451000C9451000C945100DC
:100060000C9451000C94510011241FBECFEFD8E026
:10007000DEBFCDBF11E0A0E0B1E0EAE6FDE002C0E6
:1000800005900D92A031B107D9F727E0A0E1B1E0CA
:1000900001C01D92A337B207E1F70E945C030C94E4
:1000A000B3060C940000CAE4D3E080E0C82E81E0DF
:1000B000D82E0AEC15E090E8F92EF894DF93CF9350
:1000C000DF92CF921F930F930E94DB03FE010190FA
:1000D0000020E9F7CF018B5493400F900F900F90C1
:1000E0000F900F900F90029720F08AEC95E00E94FD
:1000F0001003F8012F2D11922A95E9F7FE012F2DFB
:1001000011922A95E9F71092720678948FEF91EE8A
:10011000E4E081509040E040E1F700C00000CDCF26
:10012000F8940E94EE02E0917206AE2FB0E0A65B5A
:10013000BC4F8C93EF5FE0937206F0E0E65BFC4F00
:10014000108278942FEF81EE94E02150804090400F
:10015000E1F700C00000E4CF9093C5008093C40095
:1001600086E08093C20088E98093C1000895909151
:10017000C00095FFFCCF8093C6000895CF93DF9316
:10018000EC018991811103C0DF91CF9108950E9404
:10019000B700F7CF7894A0911A01B0911B01109786
:1001A00069F01296ED91FC911397309739F01496FF
:1001B0006D917D918D919C9117970995E0911A0110
:1001C000F0911B0181E0838B0895EF920F931F93B1
:1001D000FC01538342830483158326833783E0869F
:1001E000148613861286118682E0838B8AEC90E057
:1001F000DB018C9311979C9311971C9211971C9281
:1002000011971C9211971C9211971C9211971C9296
:1002100011971C9211971C9211971C9211971C9286
:1002200011971C9211971C9211971C9211971C9276
:1002300011971C9211971C9211971C9211971C9266
:1002400064517109718360831F910F91EF9008953C
:10025000CF93DF93DC01ED91FC911197309799F0EA
:1002600014968C911497813091F413961C921E92DF
:10027000129711961C921E92815014968C9312869E
:10028000118614861386CF01DF91CF910895C18521
:10029000D285FC87EB871196DC93CE93EDCFCF937D
:1002A000DF93DC01FB0183859485892B61F58185D2
:1002B0009285892B41F514968C911497811114C065
:1002C00011967C936E9313967C936E93129774871A
:1002D00063871286118693E0938B8F5F14968C93BD
:1002E00080E0DF91CF9108951296CD91DC91139724
:1002F0007A876987D487C3871286118613967C9381
:100300006E931297E8CF8FEFECCF2F923F924F92E0
:100310005F926F927F928F929F92AF92BF92CF9295
:10032000DF92EF92FF920F931F93CF93DF930DB75E
:100330001EB7C82FD92F08831983C62FD72F08813E
:1003400019810DBF1EBFDF91CF911F910F91FF90BB
:10035000EF90DF90CF90BF90AF909F908F907F9065
:100360006F905F904F903F902F900895C82FD92F96
:10037000088119810DBF1EBFDF91CF911F910F9191
:10038000FF90EF90DF90CF90BF90AF909F908F90B5
:100390007F906F905F904F903F902F9018958AE6D6
:1003A00098E1909389008093880082E080936F00A9
:1003B0008CE08093810008951F920F920FB60F92E8
:1003C00011242F933F934F935F936F937F938F935A
:1003D0009F93AF93BF93EF93FF930E941502FF91FA
:1003E000EF91BF91AF919F918F917F916F915F91AD
:1003F0004F913F912F910F900FBE0F901F90189526
:10040000F89485E191E00E94280190931B0180936C
:100410001A01892B11F40E94D6030E94CF0180910A
:100420001A0190911B010C94B601CF93DF93C091F8
:100430001A01D0911B018885811119C083E08B8B33
:10044000BE0180E191E00E944F010E9432038111C0
:1004500002C00E94460360911A0170911B016C1743
:100460007D0759F0CE01DF91CF910C94850183E097
:100470008B8BBE0185E191E0E6CFDF91CF910895AE
:100480001F920F920FB60F9211242F933F934F9309
:100490005F936F937F938F939F93AF93BF93EF93EC
:1004A000FF932D9A6091C6006A3011F06D3009F407
:1004B00060E08FE992E00E94B7020E941502FF916E
:1004C000EF91BF91AF919F918F917F916F915F91CC
:1004D0004F913F912F910F900FBE0F901F90189545
:1004E0001F920F920FB60F9211242F933F934F93A9
:1004F0005F936F937F938F939F93AF93BF93EF938C
:10050000FF9380919E01811119C08091C1008F7D60
:100510008093C1002D980E941502FF91EF91BF9129
:10052000AF919F918F917F916F915F914F913F918B
:100530002F910F900FBE0F901F9018958CE191E0B6
:100540000E94D2028093C600E5CF009779F0DC01CB
:10055000A058BF4F1C92FC01EF57FF4F10823196FD
:100560001082FC011192EA17FB07E1F70895FC01E4
:10057000E058FF4F208130E0A9014F5F5F4F4F7778
:100580005527DC01AF57BF4F7C917417150649F012
:10059000280F391FD9016C934083329680818F5F79
:1005A00080830895FC01EF57FF4F2081DC01A058A4
:1005B000BF4F3C914FEF321779F030E0DC01A20FD2
:1005C000B31F4C911C922F5F3F4F2F77332720830F
:1005D0003196908191509083842F089580912103CA
:1005E000811102C00E941502F8948FE992E00E94E6
:1005F000D20278940895CF93C82F80919E0187FDF1
:100600000E941502F8946C2F8CE191E00E94B702D1
:1006100078948091C10080628093C100CF91089549
:10062000EF92FF920F931F93CF93DF938C01EC0116
:1006300009900020E9F72197C81BD90B7C01C7015D
:10064000801B910B8C179D073CF0DF91CF911F9180
:100650000F91FF90EF900895F70181917F010E9423
:10066000FB02EDCF80912103882379F0809119015D
:10067000882359F085E191E00E942801FC01138A4A
:1006800090931B0180931A0181E0089580919E014F
:1006900087FD10C080911401882369F080E191E00A
:1006A0000E942801FC01138A90931B0180931A0178
:1006B00081E0089580E00895EF920F931F9380E109
:1006C00090E00E94AC007894E1ECF0E080818068DA
:1006D00080838FE992E00E94A5028CE191E00E9464
:1006E000A502259A2D981092720680E8EAECF5E0B2
:1006F000DF01982F1D929A95E9F7EAE4F3E0DF0114
:100700001D928A95E9F7EE24E39400E010E0980149
:1007100040E950E06EE972E086E393E00E94E50074
:1007200000E010E0980140E950E062E777E082E203
:1007300093E00E94E50000E010E0980140E950E0FD
:1007400069EC75E08EE596E00E94E500E12C00E0A2
:1007500010E0980143E550E069EC74E08AE496E02B
:100760000E94E50066E373E085E191E00E944F019D
:1007700062E273E085E191E00E944F016EE576E070
:1007800085E191E00E944F016AE476E080E191E02A
:100790000E944F0185E091E00E94BE000E9400028D
:1007A00090E080E01F910F91EF90089581E090E03C
:1007B000F8940C94B306AEE0B0E0E1EEF3E00C94F4
:1007C0008A060D891E8986E08C831A8309838FEF40
:1007D0009FE79E838D83AE01475E5F4F6F89788D63
:1007E000CE0101960E94FE032F813885020F131F50
:1007F000F80110822E96E4E00C94A606ABE0B0E07F
:10080000E4E0F4E00C947C067C013B018A01FC01ED
:1008100017821682838181FFC8C1CE0101965C01D7
:10082000F7019381F30193FD859193FF81913F013E
:10083000882309F453C1853239F493FD859193FFE0
:1008400081913F01853229F4B70190E00E94EE05C5
:10085000E7CF912C212C312CFFE1F31538F08B32AE
:1008600011F190F4803209F1833229F137FC3CC058
:1008700020ED280F2A3050F536FE20C08AE0989EE1
:10088000200D1124922E06C08D3291F0803371F725
:10089000689430F8F30193FD859193FF81913F01B6
:1008A0008111DACF21C0689431F8689432F8F2CF20
:1008B000689433F8EFCF689434F8ECCFEAE02E9EDA
:1008C000200D1124222E689435F8E4CF8E3229F4BD
:1008D00036FC04C1689436F8DDCF8C3619F4689480
:1008E00037F8D8CF8836B1F2982F9F7D9554933042
:1008F000E0F08336A1F18337C1F1833509F063C09D
:100900002801F2E04F0E511CF801C080D180692D02
:1009100070E036FC02C06FEF7FEFC6010E94D80581
:100920004C01689437F882010AC00C5F1F4FFFE347
:10093000F98388248394912C6501E89437F833FE79
:100940002DC0522C8114910471F5552009F468CF03
:10095000B70180E290E00E94EE055A94F6CFF801CC
:10096000808189830E5F1F4FE4CF2801F2E04F0E94
:10097000511CF801C080D180692D70E036FC02C0A6
:100980006FEF7FEFC6010E94E3054C018201D5CFD6
:10099000B70180E290E00E94EE052A942814190421
:1009A00009F0B0F7CECFF60137FC859137FE819183
:1009B0006F01B70190E00E94EE0551105A94F1E0EA
:1009C0008F1A9108BFCF843619F0893609F077C0A5
:1009D000F80137FE6BC060817181828193810C5F69
:1009E0001F4FF32DFF763F2E97FF09C090958095FE
:1009F000709561957F4F8F4F9F4F689437F82AE02D
:100A000030E0A5010E941E06C82ECA188C2C432C6B
:100A100036FE0CC0E89440F8C91440F434FE05C01A
:100A200032FC03C0F32DFE7E4F2E892C44FE95C070
:100A3000FE01EC0DF11D8081803309F087C0242D6B
:100A4000297E422E842D8870582E43FC95C040FE8E
:100A50008FC09C2C821418F42C0C922C981844FEF5
:100A600091C0B70180E390E00E94EE0542FE09C00C
:100A700088E790E041FE02C088E590E0B7010E945F
:100A8000EE05C91408F48AC0CA94D12C9FEFC91A84
:100A9000D90ACA0CDB1CF60182916F01B70190E004
:100AA0000E94EE05AC14BD04B1F74FCF6081718197
:100AB000072E000C880B990B0E5F1F4F92CFD32C83
:100AC000E894D4F82AE030E0853739F1232D297FE6
:100AD000D22E8F3601F148F48835A9F0F7018681CE
:100AE00097812B96E2E10C949806803749F088377D
:100AF000A9F7D4FE02C06894D2F820E130E00DC01E
:100B00006894D4F8F6CF34FE03C0822F8660D82EC6
:100B100020E132E002C028E030E0F801D7FE0FC04B
:100B200060817181828193810C5F1F4FA5010E94BA
:100B30001E06C82ECA183D2CE89437F867CF60818E
:100B4000718190E080E00E5F1F4FF0CF42FC02C049
:100B5000839478CF8394839475CF842D867809F419
:100B600071CFF6CFB70180E290E00E94EE0583944A
:100B70008214C0F3512C73CF522C5818821408F4ED
:100B80006ECFF8CF842D867809F47BCF8BE241FEBF
:100B900080E247FC8DE2B70190E071CFB70180E3BE
:100BA00090E00E94EE059A946CCF8FEF9FEF99CF63
:100BB000FC010590615070400110D8F78095909528
:100BC0008E0F9F1F0895FC0161507040019001102D
:100BD000D8F7809590958E0F9F1F08950F931F93C0
:100BE000CF93DF93182F092FEB018B8181FD09C073
:100BF0001FEF0FEF812F902FDF91CF911F910F915A
:100C0000089582FF14C02E813F818C819D81281719
:100C100039073CF4E881F981CF01019699838883F3
:100C200010838E819F8101969F838E83E3CFE88519
:100C3000F985812F0995892BA1F3DACFFA01AA272B
:100C4000283051F1203181F1E8946F936E7F6E5F0F
:100C50007F4F8F4F9F4FAF4FB1E03ED0B4E03CD0BD
:100C6000670F781F891F9A1FA11D680F791F8A1FA0
:100C7000911DA11D6A0F711D811D911DA11D20D007
:100C800009F468943F912AE0269F11243019305DC1
:100C90003193DEF6CF010895462F4770405D4193B2
:100CA000B3E00FD0C9F7F6CF462F4F70405D4A33FF
:100CB00018F0495D31FD4052419302D0A9F7EACFC7
:100CC000B4E0A6959795879577956795BA95C9F7F6
:100CD00000976105710508959B01AC010A2E0694E9
:100CE0005795479537952795BA95C9F7620F731FA2
:100CF000841F951FA01D08952F923F924F925F92DF
:100D00006F927F928F929F92AF92BF92CF92DF921B
:100D1000EF92FF920F931F93CF93DF93CDB7DEB780
:100D2000CA1BDB0B0FB6F894DEBF0FBECDBF099414
:100D30002A88398848885F846E847D848C849B846B
:100D4000AA84B984C884DF80EE80FD800C811B8179
:100D5000AA81B981CE0FD11D0FB6F894DEBF0FBEA8
:0A0D6000CDBFED010895F894FFCF18
:100D6A002573200A005374617274696E67200A0041
:00000001FF
