:100000000C947C000C949D000C949D000C949D001D
:100010000C949D000C949D000C949D000C949D00EC
:100020000C949D000C949D000C949D000C949D00DC
:100030000C949D000C949D000C949D000C949D00CC
:100040000C949D000C9495020C949D000C949D00C2
:100050000C949D000C949D000C949D000C949D00AC
:100060000C949D000C94BD020C949D000C949D007A
:100070000C949D000C949D000C949D000C949D008C
:100080000C949D000C949D000C949D000C949D007C
:100090000C949D000C949D000C949D000C949D006C
:1000A0000C949D000C949D000C949D000C949D005C
:1000B0000C949D000C949D000C949D000C949D004C
:1000C0000C949D000C949D000C949D000C949D003C
:1000D0000C949D000C949D000C949D000C949D002C
:1000E0000C949D000C94D8000C94C8000C94E8006B
:1000F0000C949F000C943B0111241FBECFEFD1E262
:10010000DEBFCDBF00E00CBF13E0A0E0B2E0E0E254
:10011000FEE000E00BBF02C007900D92AC36B107C5
:10012000D9F726E0ACE6B3E001C01D92A83FB207C4
:10013000E1F70E94CD030C940E070C94000082EBB3
:10014000E82E85E0F82E10E4F89480917805882355
:1001500059F0C2EBD5E086E395E00E94A3038993B2
:10016000809178058111F7CF82EB95E00E943D04E4
:10017000F701212F11922A95E9F778948FEF93EDEB
:10018000E0E381509040E040E1F700C00000DCCFA8
:10019000F8948EE092E00E943D0478942FEF83ED76
:1001A00090E3215080409040E1F700C00000F0CF84
:1001B000F89481E192E00E943D0478942FEF83ED62
:1001C00090E3215080409040E1F700C00000F0CF64
:1001D0008A3049F09091C00095FFFCCF8093C60013
:1001E00090E080E008959091C00095FFFCCF9DE0E5
:1001F0009093C600EFCF9093C5008093C40086E033
:100200008093C20088E98093C10008959091C00056
:1002100095FFFCCF8093C60008958091C00087FFB2
:10022000FCCF8091C60008958091C000881F882768
:10023000881F0895FC012081222351F0319690916E
:10024000C00095FFFCCF2093C60021912111F7CF6C
:10025000089580E092E09093F5068093F406109262
:10026000C50082E38093C40086E08093C20088E9E1
:100270008093C10008957894A0917103B0917203A6
:10028000109789F01296ED91FC911397309759F0E1
:1002900014966D917D918D919C9117971995A091D0
:1002A0007103B091720381E052968C9308950F937D
:1002B0001F93FC0153834283048315832683378372
:1002C000138612861186108682E0828B8BE391E082
:1002D000DB018C9311979C9311971C9211971C92A0
:1002E00011971C9211971C9211971C9211971C92B6
:1002F00011971C9211971C9211971C9211971C92A6
:1003000011971C9211971C9211971C9211971C9295
:1003100011971C9211971C9211971C9211971C9285
:1003200011971C9211971C9211971C926751710999
:10033000718360831F910F910895CF93DF93DC0148
:10034000ED91FC911197309799F014968C91149738
:10035000813091F0C085D1851196DC93CE93DB87F7
:10036000CA87815014968C93118610861386128644
:10037000CF01DF91CF91089513961C921E92129790
:1003800011961C921E92EDCFDB011A962D913C9195
:100390001B97232B11F08FEF089518962D913C9108
:1003A0001997232BC1F7FC0124812223B9F0028085
:1003B000F381E02D71876087DB011B96FC93EE9340
:1003C0001A9719961C921E921897FC0173836283E8
:1003D0002F5FDC0114962C9380E008957183608375
:1003E000738362831B967C936E931A9719961C9263
:1003F0001E9218972F5FDC0114962C9380E00895CD
:100400000F931F93CF93DF93FC01C081D1818DE1C6
:1004100092E00E943D042097E9F008E212E089850D
:100420008F9388858F938B858F938A858F93DF93A6
:10043000CF931F930F930E9423040884D985C02D66
:10044000EDB7FEB738960FB6F894FEBF0FBEEDBFFE
:10045000209729F780E492E0DF91CF911F910F91CF
:100460000C943D042F923F924F925F926F927F9235
:100470008F929F92AF92BF92CF92DF92EF92FF92B4
:100480000F931F93CF93DF930BB60F920CB60F927F
:100490000DB71EB7C82FD92F08831983C62FD72FA2
:1004A000088119810DBF1EBF0F900CB60F900BB6BF
:1004B000DF91CF911F910F91FF90EF90DF90CF9040
:1004C000BF90AF909F908F907F906F905F904F9074
:1004D0003F902F900895C82FD92F088119810DBF03
:1004E0001EBF0F900CB60F900BB6DF91CF911F91EE
:1004F0000F91FF90EF90DF90CF90BF90AF909F90C3
:100500008F907F906F905F904F903F902F901895B5
:100510008AE698E1909389008093880082E0809336
:100520006F008CE08093810008951F920F920FB6A8
:100530000F9211240BB60F922F933F934F935F931B
:100540006F937F938F939F93AF93BF93EF93FF939B
:100550000E940003FF91EF91BF91AF919F918F9106
:100560007F916F915F914F913F912F910F900BBEB3
:100570000F900FBE0F901F9018951F920F920FB6FD
:100580000F9211240BB60F922F933F934F935F93CB
:100590006F937F938F939F93AF93BF93EF93FF934B
:1005A000F8946091C60086E395E00E9482037894F7
:1005B000FF91EF91BF91AF919F918F917F916F913B
:1005C0005F914F913F912F910F900BBE0F900FBEF7
:1005D0000F901F901895F8948CE693E00E949D016F
:1005E0009093720380937103892B41F00E948802DB
:1005F00080917103909172030C946B020E941E040F
:10060000CF93DF93C0917103D0917203BE018CE64A
:1006100093E00E94C4018CE693E00E949D019093B8
:100620007203809371038C179D0731F0BC01CE01DA
:10063000DF91CF910C943202DF91CF910895009712
:1006400089F0FC01E05CFF4F1082319610823196F8
:10065000108220E4FC0111922A95E9F78FE692E0DE
:100660000C943D0489E492E00C943D04EF92FF92D7
:100670000F931F93CF93DF930097D1F17C018AEB07
:1006800092E09F938F930E942304E7018701005C0F
:100690001F4F0F900F90899190E00E943704C01770
:1006A000D107C9F78AE090E00E943704F701EE5BBA
:1006B000FF4F80811F928F93319780811F928F937C
:1006C00088811F928F938BEC92E09F938F930E946F
:1006D00023048DB79EB708960FB6F8949EBF0FBE41
:1006E0008DBFDF91CF911F910F91FF90EF900895F3
:1006F00087E992E0DF91CF911F910F91FF90EF90EA
:100700000C943D04FC01E05CFF4F208130E0A90126
:100710004F5F5F4F4F735527DC01AF5BBF4F7C913D
:100720007417150661F0280F391FD9016C934083A7
:10073000FC01EE5BFF4F80818F5F808308958BE02B
:1007400093E00C943D04FC01EF5BFF4F2081DC0142
:10075000A05CBF4F3C91321799F030E0DC01A20F52
:10076000B31F4C911C922F5F3F4F2F733327208371
:10077000FC01EE5BFF4F908191509083842F089590
:100780008CE393E00E943D044FEF842F0895E1EC49
:10079000F0E080818068808308950F931F930E940A
:1007A000290186E395E00E941F0383E793E00E94FE
:1007B0001F03E2EBF5E080E4DF011D928A95E9F783
:1007C00000E010E098014FE950E065E375E089E74B
:1007D00095E00E94570100E010E0980148EC50E0DD
:1007E00065EB74E08FE995E00E94570100E010E0AE
:1007F000980148ED50E061EF76E08CE895E00E94CA
:1008000057016FE975E08CE693E00E94C4016CE843
:1008100075E08CE693E00E94C40169E775E08CE620
:1008200093E00E94C40184E192E00E943D040E9492
:10083000EB0290E080E01F910F91089581E090E03D
:10084000F8940C940E07CF93DF93CDB7DEB7AE01CB
:100850004A5F5F4FFA0161917191AF018091F40697
:100860009091F5060E946804DF91CF910895609100
:10087000F4067091F5060C9480060F931F93CF93A6
:10088000DF93E091F406F091F5062381EC0110E08E
:1008900000E021FD08C00FEF1FEF14C01995892B50
:1008A00011F00FEF1FEF89916091F4067091F5063A
:1008B000DB011896ED91FC918111F0CF8AE019953A
:1008C000892B49F7C801DF91CF911F910F910895AE
:1008D0002F923F924F925F926F927F928F929F9250
:1008E000AF92BF92CF92DF92EF92FF920F931F933E
:1008F000CF93DF9300D000D000D01F921F92CDB7CE
:10090000DEB77C013B018A01FC01178216828381DC
:1009100081FFDDC1CE0101965C01F7019381F301F6
:1009200093FD859193FF81913F01882309F453C181
:10093000853239F493FD859193FF81913F01853292
:1009400029F4B70190E00E948006E7CF912C212C7A
:10095000312CFFE1F31538F08B3211F190F4803235
:1009600009F1833229F137FC3CC020ED280F2A30F1
:1009700050F536FE20C08AE0989E200D1124922E5C
:1009800006C08D3291F0803371F7689430F8F3012E
:1009900093FD859193FF81913F018111DACF21C0B1
:1009A000689431F8689432F8F2CF689433F8EFCF56
:1009B000689434F8ECCFEAE02E9E200D1124222E0C
:1009C000689435F8E4CF8E3229F436FC04C168947B
:1009D00036F8DDCF8C3619F4689437F8D8CF8836DE
:1009E000B1F2982F9F7D95549330E0F08336A1F1BA
:1009F0008337C1F1833509F063C02801F2E04F0E5F
:100A0000511CF801C080D180692D70E036FC02C015
:100A10006FEF7FEFC6010E946A064C01689437F8B9
:100A200082010AC00C5F1F4FFFE3F983882483947F
:100A3000912C6501E89437F833FE2DC0522C8114B7
:100A4000910471F5552009F468CFB70180E290E078
:100A50000E9480065A94F6CFF801808189830E5F48
:100A60001F4FE4CF2801F2E04F0E511CF801C08067
:100A7000D180692D70E036FC02C06FEF7FEFC601B8
:100A80000E9475064C018201D5CFB70180E290E04B
:100A90000E9480062A942814190409F0B0F7CECFDA
:100AA000F60137FC859137FE81916F01B70190E027
:100AB0000E94800651105A94F1E08F1A9108BFCF1E
:100AC000843619F0893609F077C0F80137FE6BC01B
:100AD00060817181828193810C5F1F4FF32DFF76BE
:100AE0003F2E97FF09C090958095709561957F4F37
:100AF0008F4F9F4F689437F82AE030E0A5010E949D
:100B0000B006C82ECA188C2C432C36FE0CC0E894B4
:100B100040F8C91440F434FE05C032FC03C0F32D84
:100B2000FE7E4F2E892C44FEAAC0FE01EC0DF11D65
:100B30008081803309F09CC0242D297E422E842D93
:100B40008870582E43FCAAC040FEA4C09C2C82147E
:100B500018F42C0C922C981844FEA6C0B70180E320
:100B600090E00E94800642FE09C088E790E041FEC6
:100B700002C088E590E0B7010E948006C91408F41D
:100B80009FC0CA94D12C9FEFC91AD90ACA0CDB1C8A
:100B9000F60182916F01B70190E00E948006AC14CB
:100BA000BD04B1F74FCF60817181072E000C880B17
:100BB000990B0E5F1F4F92CFD32CE894D4F82AE004
:100BC00030E08537E1F1232D297FD22E8F36A9F130
:100BD000F0F4883551F1F701868197812B960FB695
:100BE000F894DEBF0FBECDBFDF91CF911F910F9163
:100BF000FF90EF90DF90CF90BF90AF909F908F903D
:100C00007F906F905F904F903F902F900895803726
:100C100049F0883701F7D4FE02C06894D2F820E189
:100C200030E00DC06894D4F8F6CF34FE03C0822FB4
:100C30008660D82E20E132E002C028E030E0F801E2
:100C4000D7FE0FC060817181828193810C5F1F4F3D
:100C5000A5010E94B006C82ECA183D2CE89437F8AA
:100C600052CF6081718190E080E00E5F1F4FF0CF26
:100C700042FC02C0839463CF8394839460CF842D1D
:100C8000867809F45CCFF6CFB70180E290E00E944D
:100C9000800683948214C0F3512C5ECF522C5818D6
:100CA000821408F459CFF8CF842D867809F466CFE2
:100CB0008BE241FE80E247FC8DE2B70190E05CCF21
:100CC000B70180E390E00E9480069A9457CF8FEF9F
:100CD0009FEF84CFFC010590615070400110D8F760
:100CE000809590958E0F9F1F0895FC016150704074
:100CF00001900110D8F7809590958E0F9F1F089551
:100D00000F931F93CF93DF93182F092FEB018B8144
:100D100081FD09C01FEF0FEF812F902FDF91CF9141
:100D20001F910F91089582FF14C02E813F818C8105
:100D30009D81281739073CF4E881F981CF0101969C
:100D40009983888310838E819F8101969F838E83F0
:100D5000E3CFE885F985812F1995892BA1F3DACFA7
:100D6000FA01AA27283051F1203181F1E8946F93DC
:100D70006E7F6E5F7F4F8F4F9F4FAF4FB1E03ED082
:100D8000B4E03CD0670F781F891F9A1FA11D680F20
:100D9000791F8A1F911DA11D6A0F711D811D911D53
:100DA000A11D20D009F468943F912AE0269F1124C8
:100DB0003019305D3193DEF6CF010895462F47702C
:100DC000405D4193B3E00FD0C9F7F6CF462F4F7087
:100DD000405D4A3318F0495D31FD4052419302D0E5
:100DE000A9F7EACFB4E0A69597958795779567958B
:100DF000BA95C9F700976105710508959B01AC018B
:100E00000A2E06945795479537952795BA95C9F7B1
:100E1000620F731F841F951FA01D0895F894FFCFC4
:100E20000000000200000000E80000000000703137
:100E3000007032007374617274696E67007374615C
:100E400072742D6C697374005B633A2025702C20DA
:100E5000703A2025702C206E3A2025705D0A200003
:100E6000656E642D6C697374005B6275666665728D
:100E7000496E6974202D3E204572726F72655D2047
:100E8000627566666572203D3D204E554C4C005B98
:100E9000627566666572496E69745D204275666644
:100EA00065722063726561746F20636F6E20737565
:100EB00063636573736F005B627566666572496E26
:100EC000666F202D3E204572726F7265215D4275FE
:100ED00066666572204E554C4C005B6275666665B1
:100EE00072202D3E20646174615D005B62756666F0
:100EF0006572202D3E20686561645D202575200A9D
:100F00005B627566666572202D3E207461696C5D5A
:100F1000202575200A5B627566666572202D3E206D
:100F200073697A655D202575200A005B62756666C7
:100F3000657257726974655D2042756666657220D8
:100F40007069656E6F2C20696D706F73736962696B
:100F50006C65207363726976657265005B627566A5
:100F6000666572526561645D2042756666657220D1
:100F700076756F746F2C20696D706F737369626919
:0C0F80006C65206C656767657265000099
:00000001FF
