:100000000C947C000C949D000C949D000C949D001D
:100010000C949D000C949D000C949D000C949D00EC
:100020000C949D000C949D000C949D000C949D00DC
:100030000C949D000C949D000C949D000C949D00CC
:100040000C949D000C9440020C949D000C949D0017
:100050000C949D000C949D000C949D000C949D00AC
:100060000C949D000C949D000C949D000C949D009C
:100070000C949D000C949D000C949D000C949D008C
:100080000C949D000C949D000C949D000C949D007C
:100090000C949D000C949D000C949D000C949D006C
:1000A0000C949D000C949D000C949D000C949D005C
:1000B0000C949D000C949D000C949D000C949D004C
:1000C0000C949D000C949D000C949D000C949D003C
:1000D0000C949D000C949D000C949D000C949D002C
:1000E0000C949D000C94B0000C949F000C9468023A
:1000F0000C94A0000C943C0111241FBECFEFD1E260
:10010000DEBFCDBF00E00CBF12E0A0E0B2E0E4E350
:10011000FCE000E00BBF02C007900D92A43AB107CB
:10012000D9F725E0A4EAB2E001C01D92AA36B207D1
:10013000E1F70E94BB020C9418060C940000FFCF5C
:10014000F8948EE092E00E94470378942FEF81EEBE
:1001500094E0215080409040E1F700C00000F0CFD3
:100160000E94A0002F923F924F925F926F927F92D7
:100170008F929F92AF92BF92CF92DF92EF92FF92B7
:100180000F931F93CF93DF930BB60F920CB60F9282
:100190000DB71EB7C82FD92F08831983C62FD72FA5
:1001A000088119810DBF1EBF0F900CB60F900BB6C2
:1001B000DF91CF911F910F91FF90EF90DF90CF9043
:1001C000BF90AF909F908F907F906F905F904F9077
:1001D0003F902F900895C82FD92F088119810DBF06
:1001E0001EBF0F900CB60F900BB6DF91CF911F91F1
:1001F0000F91FF90EF90DF90CF90BF90AF909F90C6
:100200008F907F906F905F904F903F902F901895B8
:10021000F89484EA92E00E949E019093AA0280934F
:10022000A902892B41F00E9433028091A90290918A
:10023000AA020C94EB000E942E03CF93DF93C0918F
:10024000A902D091AA02BE0184EA92E00E94C501EF
:1002500084EA92E00E949E019093AA028093A902F0
:100260008C179D0731F0BC01CE01DF91CF910C942A
:10027000B200DF91CF9108957894A091A902B09136
:10028000AA02109789F01296ED91FC91139730977E
:1002900059F014966D917D918D919C9117971995B8
:1002A000A091A902B091AA0281E052968C93089580
:1002B0000F931F93FC01538342830483158326838A
:1002C0003783138612861186108682E0828B8CE338
:1002D00091E0DB018C9311979C9311971C921197DD
:1002E0001C9211971C9211971C9211971C921197B6
:1002F0001C9211971C9211971C9211971C921197A6
:100300001C9211971C9211971C9211971C92119795
:100310001C9211971C9211971C9211971C92119785
:100320001C9211971C9211971C9211971C92675165
:100330007109718360831F910F910895CF93DF93AB
:10034000DC01ED91FC911197309799F014968C9106
:100350001497813091F0C085D1851196DC93CE93AE
:10036000DB87CA87815014968C931186108613867A
:100370001286CF01DF91CF91089513961C921E92A1
:10038000129711961C921E92EDCFDB011A962D91B9
:100390003C911B97232B11F08FEF089518962D9108
:1003A0003C911997232BC1F7FC0124812223B9F03A
:1003B0000280F381E02D71876087DB011B96FC933F
:1003C000EE931A9719961C921E921897FC0173834C
:1003D00062832F5FDC0114962C9380E00895718373
:1003E0006083738362831B967C936E931A9719962E
:1003F0001C921E9218972F5FDC0114962C9380E0BC
:1004000008950F931F93CF93DF93FC01C081D18197
:100410008BE392E00E9447032097E9F004E612E0A4
:1004200089858F9388858F938B858F938A858F930A
:10043000DF93CF931F930F930E9433030884D985D2
:10044000C02DEDB7FEB738960FB6F894FEBF0FBEBD
:10045000EDBF209729F78CE792E0DF91CF911F91B4
:100460000F910C9447038AE698E19093890080935A
:10047000880082E080936F008CE080938100089573
:100480001F920F920FB60F9211240BB60F922F935B
:100490003F934F935F936F937F938F939F93AF930C
:1004A000BF93EF93FF930E941D01FF91EF91BF91C6
:1004B000AF919F918F917F916F915F914F913F91FC
:1004C0002F910F900BBE0F900FBE0F901F9018959D
:1004D0008A3049F09091C00095FFFCCF8093C60010
:1004E00090E080E008959091C00095FFFCCF9DE0E2
:1004F0009093C600EFCF9093C5008093C40086E030
:100500008093C20088E98093C10008959091C00053
:1005100095FFFCCF8093C60008958091C00087FFAF
:10052000FCCF8091C60008958091C000881F882765
:10053000881F0895FC012081222351F0319690916B
:10054000C00095FFFCCF2093C60021912111F7CF69
:10055000089580E092E0909367058093660510927D
:10056000C50082E38093C40086E08093C20088E9DE
:100570008093C10008950E94A90200E010E0980154
:100580004FE950E060E574E081E594E00E94580195
:1005900000E010E0980140EA50E06AEA73E08EEB78
:1005A00093E00E94580100E010E0980140EB50E019
:1005B00063E675E08BEA93E00E94580161E574E020
:1005C00084EA92E00E94C5016EEB73E084EA92E057
:1005D0000E94C5016BEA73E084EA92E00E94C501C3
:1005E00081E192E00E94470384EA92E00E940102C6
:1005F000C4E2D2E08AE192E00E94470384EA92E0FA
:100600000E949E018093A9029093AA029F938F93C8
:10061000DF93CF930E94330384EA92E00E940102A9
:100620009FEF23ED80E3915020408040E1F700C030
:10063000000081E392E00E9447036091A90270915B
:10064000AA0284EA92E00E94C50184EA92E00E9434
:1006500001020F900F900F900F90CCCF81E090E0AF
:10066000F8940C941806CF93DF93CDB7DEB7AE01A4
:100670004A5F5F4FFA0161917191AF018091660508
:10068000909167050E947203DF91CF9108950F93B7
:100690001F93CF93DF93E0916605F0916705238167
:1006A000EC0110E000E021FD08C00FEF1FEF14C0C7
:1006B0001995892B11F00FEF1FEF89916091660555
:1006C00070916705DB011896ED91FC918111F0CFD7
:1006D0008AE01995892B49F7C801DF91CF911F91C5
:1006E0000F9108952F923F924F925F926F927F9257
:1006F0008F929F92AF92BF92CF92DF92EF92FF9232
:100700000F931F93CF93DF9300D000D000D01F92A0
:100710001F92CDB7DEB77C013B018A01FC01178235
:100720001682838181FFDDC1CE0101965C01F70154
:100730009381F30193FD859193FF81913F0188237C
:1007400009F453C1853239F493FD859193FF81916A
:100750003F01853229F4B70190E00E948A05E7CF76
:10076000912C212C312CFFE1F31538F08B3211F153
:1007700090F4803209F1833229F137FC3CC020ED3E
:10078000280F2A3050F536FE20C08AE0989E200DB2
:100790001124922E06C08D3291F0803371F7689447
:1007A00030F8F30193FD859193FF81913F01811111
:1007B000DACF21C0689431F8689432F8F2CF6894A7
:1007C00033F8EFCF689434F8ECCFEAE02E9E200D9A
:1007D0001124222E689435F8E4CF8E3229F436FCA9
:1007E00004C1689436F8DDCF8C3619F4689437F874
:1007F000D8CF8836B1F2982F9F7D95549330E0F092
:100800008336A1F18337C1F1833509F063C0280134
:10081000F2E04F0E511CF801C080D180692D70E0CC
:1008200036FC02C06FEF7FEFC6010E9474054C01D9
:10083000689437F882010AC00C5F1F4FFFE3F98309
:1008400088248394912C6501E89437F833FE2DC0F9
:10085000522C8114910471F5552009F468CFB70129
:1008600080E290E00E948A055A94F6CFF8018081D8
:1008700089830E5F1F4FE4CF2801F2E04F0E511C19
:10088000F801C080D180692D70E036FC02C06FEFA6
:100890007FEFC6010E947F054C018201D5CFB701D1
:1008A00080E290E00E948A052A942814190409F035
:1008B000B0F7CECFF60137FC859137FE81916F01FD
:1008C000B70190E00E948A0551105A94F1E08F1A06
:1008D0009108BFCF843619F0893609F077C0F80146
:1008E00037FE6BC060817181828193810C5F1F4FE5
:1008F000F32DFF763F2E97FF09C090958095709558
:1009000061957F4F8F4F9F4F689437F82AE030E012
:10091000A5010E94BA05C82ECA188C2C432C36FE9D
:100920000CC0E89440F8C91440F434FE05C032FC11
:1009300003C0F32DFE7E4F2E892C44FEAAC0FE017B
:10094000EC0DF11D8081803309F09CC0242D297E9F
:10095000422E842D8870582E43FCAAC040FEA4C0AD
:100960009C2C821418F42C0C922C981844FEA6C0CF
:10097000B70180E390E00E948A0542FE09C088E743
:1009800090E041FE02C088E590E0B7010E948A0530
:10099000C91408F49FC0CA94D12C9FEFC91AD90A70
:1009A000CA0CDB1CF60182916F01B70190E00E9436
:1009B0008A05AC14BD04B1F74FCF60817181072E59
:1009C000000C880B990B0E5F1F4F92CFD32CE8942D
:1009D000D4F82AE030E08537E1F1232D297FD22EAB
:1009E0008F36A9F1F0F4883551F1F70186819781AE
:1009F0002B960FB6F894DEBF0FBECDBFDF91CF911F
:100A00001F910F91FF90EF90DF90CF90BF90AF902C
:100A10009F908F907F906F905F904F903F902F901E
:100A20000895803749F0883701F7D4FE02C06894F2
:100A3000D2F820E130E00DC06894D4F8F6CF34FE4F
:100A400003C0822F8660D82E20E132E002C028E069
:100A500030E0F801D7FE0FC06081718182819381FF
:100A60000C5F1F4FA5010E94BA05C82ECA183D2C65
:100A7000E89437F852CF6081718190E080E00E5F9A
:100A80001F4FF0CF42FC02C0839463CF83948394C2
:100A900060CF842D867809F45CCFF6CFB70180E271
:100AA00090E00E948A0583948214C0F3512C5ECF9B
:100AB000522C5818821408F459CFF8CF842D867818
:100AC00009F466CF8BE241FE80E247FC8DE2B7017C
:100AD00090E05CCFB70180E390E00E948A059A9491
:100AE00057CF8FEF9FEF84CFFC010590615070408E
:100AF0000110D8F7809590958E0F9F1F0895FC01E7
:100B00006150704001900110D8F7809590958E0F3C
:100B10009F1F08950F931F93CF93DF93182F092FD3
:100B2000EB018B8181FD09C01FEF0FEF812F902F0B
:100B3000DF91CF911F910F91089582FF14C02E81F4
:100B40003F818C819D81281739073CF4E881F98128
:100B5000CF0101969983888310838E819F810196AE
:100B60009F838E83E3CFE885F985812F1995892BA3
:100B7000A1F3DACFFA01AA27283051F1203181F10F
:100B8000E8946F936E7F6E5F7F4F8F4F9F4FAF4F95
:100B9000B1E03ED0B4E03CD0670F781F891F9A1FA8
:100BA000A11D680F791F8A1F911DA11D6A0F711D5C
:100BB000811D911DA11D20D009F468943F912AE068
:100BC000269F11243019305D3193DEF6CF01089550
:100BD000462F4770405D4193B3E00FD0C9F7F6CF81
:100BE000462F4F70405D4A3318F0495D31FD405249
:100BF000419302D0A9F7EACFB4E0A69597958795DF
:100C000077956795BA95C9F70097610571050895BD
:100C10009B01AC010A2E0694579547953795279569
:100C2000BA95C9F7620F731F841F951FA01D089501
:040C3000F894FFCF66
:100C340000000002000000006802000000007031A3
:100C4400007374617274696E6700646571756575AB
:100C5400696E670063757272656E743A2025700A56
:100C640000656E71756575696E67002B2B2B2B2BD8
:100C74002B2B2B2B2B2B2B2B2B2B73746172742D67
:100C84006C6973742B2B2B2B2B2B2B2B2B2B2B2BA0
:100C94002B2B2B00205B633A2025702C20703A20EC
:100CA40025702C206E3A2025705D0A002D2D2D2DE7
:100CB4002D2D2D2D2D2D2D2D2D2D2D656E642D6C71
:100CC4006973742D2D2D2D2D2D2D2D2D2D2D2D2D87
:040CD4002D2D0000C2
:00000001FF
