:100000000C947C000C949D000C949D000C949D001D
:100010000C949D000C949D000C949D000C949D00EC
:100020000C949D000C949D000C949D000C949D00DC
:100030000C949D000C949D000C949D000C949D00CC
:100040000C949D000C949D020C949D000C949D00BA
:100050000C949D000C949D000C949D000C949D00AC
:100060000C949D000C9465010C949D000C949D00D3
:100070000C949D000C949D000C949D000C949D008C
:100080000C949D000C949D000C949D000C949D007C
:100090000C949D000C949D000C949D000C949D006C
:1000A0000C949D000C949D000C949D000C949D005C
:1000B0000C949D000C949D000C949D000C949D004C
:1000C0000C949D000C949D000C949D000C949D003C
:1000D0000C949D000C949D000C949D000C949D002C
:1000E0000C949D000C949F000C94C5020C94B300DA
:1000F0000C94C7000C94990111241FBECFEFD1E2DC
:10010000DEBFCDBF00E00CBF13E0A0E0B2E0EEEA3E
:10011000FEE000E00BBF02C007900D92AA36B107C7
:10012000D9F726E0AAE6B3E001C01D92AA35B207CE
:10013000E1F70E94F1030C9455070C940000F89429
:100140008EE092E00E9484040E94EA020E94AD03C5
:1001500078942FEF83ED90E3215080409040E1F7B9
:1001600000C00000ECCFF89484E392E00E94840485
:100170008BEF94E00E945D0378942FEF83ED90E382
:10018000215080409040E1F700C00000ECCFF8948F
:1001900081E592E00E9484048BE095E00E945D037B
:1001A00078942FEF83ED90E3215080409040E1F769
:1001B00000C00000ECCF2F923F924F925F926F925F
:1001C0007F928F929F92AF92BF92CF92DF92EF92E7
:1001D000FF920F931F93CF93DF930BB60F920CB642
:1001E0000F920DB71EB7C82FD92F08831983C62FBA
:1001F000D72F088119810DBF1EBF0F900CB60F902D
:100200000BB6DF91CF911F910F91FF90EF90DF9090
:10021000CF90BF90AF909F908F907F906F905F90A6
:100220004F903F902F900895C82FD92F08811981A2
:100230000DBF1EBF0F900CB60F900BB6DF91CF9184
:100240001F910F91FF90EF90DF90CF90BF90AF90F4
:100250009F908F907F906F905F904F903F902F90E6
:100260001895F8948AE693E00E94FB01909370033E
:1002700080936F03892B41F00E94900280916F035D
:10028000909170030C9414010E946504CF93DF9346
:10029000C0916F03D0917003BE018AE693E00E9483
:1002A00022028AE693E00E94FB0190937003809300
:1002B0006F038C179D0731F0BC01CE01DF91CF9108
:1002C0000C94DB00DF91CF9108951F920F920FB62F
:1002D0000F9211240BB60F922F933F934F935F937E
:1002E0006F937F938F939F93AF93BF93EF93FF93FE
:1002F000F8946091C6006D30D1F06A30C1F08BEF98
:1003000094E00E9420037894FF91EF91BF91AF9108
:100310009F918F917F916F915F914F913F912F911D
:100320000F900BBE0F900FBE0F901F90189560E0BE
:10033000E6CF7894A0916F03B0917003109789F085
:100340001296ED91FC911397309759F014966D9198
:100350007D918D919C9117971995A0916F03B09104
:10036000700381E052968C9308950F931F93FC01C4
:10037000538342830483158326833783138612862F
:100380001186108682E0828B89E991E0DB018C93F3
:1003900011979C9311971C9211971C9211971C9284
:1003A00011971C9211971C9211971C9211971C92F5
:1003B00011971C9211971C9211971C9211971C92E5
:1003C00011971C9211971C9211971C9211971C92D5
:1003D00011971C9211971C9211971C9211971C92C5
:1003E00011971C9211971C92675171097183608358
:1003F0001F910F910895CF93DF93DC01ED91FC9154
:100400001197309799F014968C911497813091F050
:10041000C085D1851196DC93CE93DB87CA87815046
:1004200014968C931186108613861286CF01DF9165
:10043000CF91089513961C921E92129711961C92BA
:100440001E92EDCFDB011A962D913C911B97232B29
:1004500011F08FEF089518962D913C911997232B49
:10046000C1F7FC0124812223B9F00280F381E02D41
:1004700071876087DB011B96FC93EE931A971996A0
:100480001C921E921897FC01738362832F5FDC011C
:1004900014962C9380E00895718360837383628344
:1004A0001B967C936E931A9719961C921E9218971E
:1004B0002F5FDC0114962C9380E008950F931F9317
:1004C000CF93DF93FC01C081D18187E792E00E9446
:1004D00084042097E9F002E812E089858F938885EB
:1004E0008F938B858F938A858F93DF93CF931F9301
:1004F0000F930E946A040884D985C02DEDB7FEB71A
:1005000038960FB6F894FEBF0FBEEDBF209729F7BF
:100510008AE992E0DF91CF911F910F910C948404AE
:100520008AE698E1909389008093880082E0809326
:100530006F008CE08093810008951F920F920FB698
:100540000F9211240BB60F922F933F934F935F930B
:100550006F937F938F939F93AF93BF93EF93FF938B
:100560000E944601FF91EF91BF91AF919F918F91B2
:100570007F916F915F914F913F912F910F900BBEA3
:100580000F900FBE0F901F9018958A3049F09091F0
:10059000C00095FFFCCF8093C60090E080E00895F6
:1005A0009091C00095FFFCCF9DE09093C600EFCFE7
:1005B0009093C5008093C40086E08093C20088E9D0
:1005C0008093C10008959091C00095FFFCCF809367
:1005D000C60008958091C00087FFFCCF8091C600BF
:1005E00008958091C000881F8827881F0895FC0106
:1005F0002081222351F031969091C00095FFFCCFCD
:100600002093C60021912111F7CF089580E092E058
:1006100090935706809356061092C50082E380930C
:10062000C40086E08093C20088E98093C1000895E9
:10063000FC01138612861586148617861686089581
:10064000FC01268537852A30310594F4828593850F
:10065000DF01A80FB91F6C9301966AE070E00E9459
:100660003D04938782872F5F3F4F37872687089502
:1006700083EA92E00C948404FC01268537851216E7
:100680001306A4F484859585DF01A80FB91F4C914A
:100690001C9201966AE070E00E943D049587848771
:1006A0002150310937872687842F089580EB92E007
:1006B0000E9484044FEF842F0895CF92DF92EF922F
:1006C000FF920F931F93CF93DF936C018DEB92E01A
:1006D0000E9484048BE590E00E947E04F6018685EA
:1006E0009785181619061CF5D0E0C0E08AE0E82EC0
:1006F000F12C00EF12E0F601848595858C0F9D1F8B
:10070000B7010E943D04E80FF91F80811F928F936B
:100710001F930F930E946A0421960F900F900F90E1
:100720000F90F60186859785C817D90724F384EFC3
:1007300092E00E9484048DEB92E0DF91CF911F91B3
:100740000F91FF90EF90DF90CF900C948404E1EC38
:10075000F0E08081806880830895CF9380910905BF
:1007600090910A05892BA1F08BEF94E00E943C0345
:10077000C82F1F928F938AE193E09F938F930E94DB
:100780006A040F900F900F900F908C2FCF910895C7
:1007900086EF92E00E948404CFEF8C2FCF910895D2
:1007A000CF932091190530911A052A303105A1F017
:1007B000C82F682F8BE095E00E9420031F92CF93F3
:1007C00081E493E09F938F930E946A040F900F90AF
:1007D0000F900F90CF91089586EF92E0CF910C94F7
:1007E00084040F931F930E9406030E94A7038BEFBC
:1007F00094E00E9418038BE095E00E94180300E04B
:1008000010E098014FE950E06AEF74E08BE195E069
:100810000E94B50100E010E0980143EB50E06AE768
:1008200074E08EE296E00E94B50100E010E09801CD
:1008300047EC50E06DE276E081E496E00E94B5017D
:100840006EE276E08AE693E00E94220261E476E0BE
:100850008AE693E00E9422026BE175E08AE693E06B
:100860000E9422028EE692E00E9484040E943101DE
:1008700090E080E01F910F91089597FB072E16F4EA
:10088000009407D077FD09D00E94510407FC05D0E1
:100890003EF4909581959F4F0895709561957F4F97
:1008A0000895AA1BBB1B51E107C0AA1FBB1FA617B7
:1008B000B70710F0A61BB70B881F991F5A95A9F709
:1008C00080959095BC01CD01089581E090E0F89469
:1008D0000C945507CF93DF93CDB7DEB7AE014A5FD7
:1008E0005F4FFA0161917191AF018091560690912D
:1008F00057060E94AF04DF91CF910895609156068C
:10090000709157060C94C7060F931F93CF93DF93F4
:10091000E0915606F09157062381EC0110E000E0CB
:1009200021FD08C00FEF1FEF14C01995892B11F09E
:100930000FEF1FEF89916091560670915706DB010A
:100940001896ED91FC918111F0CF8AE01995892BD1
:1009500049F7C801DF91CF911F910F9108952F9210
:100960003F924F925F926F927F928F929F92AF923F
:10097000BF92CF92DF92EF92FF920F931F93CF938C
:10098000DF9300D000D000D01F921F92CDB7DEB70A
:100990007C013B018A01FC0117821682838181FF61
:1009A000DDC1CE0101965C01F7019381F30193FD56
:1009B000859193FF81913F01882309F453C18532CA
:1009C00039F493FD859193FF81913F01853229F49C
:1009D000B70190E00E94C706E7CF912C212C312C63
:1009E000FFE1F31538F08B3211F190F4803209F108
:1009F000833229F137FC3CC020ED280F2A3050F516
:100A000036FE20C08AE0989E200D1124922E06C04A
:100A10008D3291F0803371F7689430F8F30193FDD3
:100A2000859193FF81913F018111DACF21C06894B4
:100A300031F8689432F8F2CF689433F8EFCF6894C5
:100A400034F8ECCFEAE02E9E200D1124222E68947B
:100A500035F8E4CF8E3229F436FC04C1689436F8B8
:100A6000DDCF8C3619F4689437F8D8CF8836B1F2D8
:100A7000982F9F7D95549330E0F08336A1F1833712
:100A8000C1F1833509F063C02801F2E04F0E511C1B
:100A9000F801C080D180692D70E036FC02C06FEF94
:100AA0007FEFC6010E94B1064C01689437F88201BD
:100AB0000AC00C5F1F4FFFE3F98388248394912CB5
:100AC0006501E89437F833FE2DC0522C811491044F
:100AD00071F5552009F468CFB70180E290E00E94DB
:100AE000C7065A94F6CFF801808189830E5F1F4FA5
:100AF000E4CF2801F2E04F0E511CF801C080D180F4
:100B0000692D70E036FC02C06FEF7FEFC6010E94D6
:100B1000BC064C018201D5CFB70180E290E00E9473
:100B2000C7062A942814190409F0B0F7CECFF601AD
:100B300037FC859137FE81916F01B70190E00E94EB
:100B4000C70651105A94F1E08F1A9108BFCF84362E
:100B500019F0893609F077C0F80137FE6BC0608163
:100B60007181828193810C5F1F4FF32DFF763F2EA1
:100B700097FF09C090958095709561957F4F8F4F35
:100B80009F4F689437F82AE030E0A5010E94F706ED
:100B9000C82ECA188C2C432C36FE0CC0E89440F8A2
:100BA000C91440F434FE05C032FC03C0F32DFE7EB0
:100BB0004F2E892C44FEAAC0FE01EC0DF11D808150
:100BC000803309F09CC0242D297E422E842D88700C
:100BD000582E43FCAAC040FEA4C09C2C821418F4DA
:100BE0002C0C922C981844FEA6C0B70180E390E02C
:100BF0000E94C70642FE09C088E790E041FE02C09D
:100C000088E590E0B7010E94C706C91408F49FC0A8
:100C1000CA94D12C9FEFC91AD90ACA0CDB1CF60161
:100C200082916F01B70190E00E94C706AC14BD0429
:100C3000B1F74FCF60817181072E000C880B990BA3
:100C40000E5F1F4F92CFD32CE894D4F82AE030E007
:100C50008537E1F1232D297FD22E8F36A9F1F0F4CB
:100C6000883551F1F701868197812B960FB6F8945C
:100C7000DEBF0FBECDBFDF91CF911F910F91FF90CF
:100C8000EF90DF90CF90BF90AF909F908F907F902C
:100C90006F905F904F903F902F900895803749F06C
:100CA000883701F7D4FE02C06894D2F820E130E022
:100CB0000DC06894D4F8F6CF34FE03C0822F86604E
:100CC000D82E20E132E002C028E030E0F801D7FE63
:100CD0000FC060817181828193810C5F1F4FA501DC
:100CE0000E94F706C82ECA183D2CE89437F852CF58
:100CF0006081718190E080E00E5F1F4FF0CF42FC79
:100D000002C0839463CF8394839460CF842D8678CC
:100D100009F45CCFF6CFB70180E290E00E94C706ED
:100D200083948214C0F3512C5ECF522C5818821435
:100D300008F459CFF8CF842D867809F466CF8BE27A
:100D400041FE80E247FC8DE2B70190E05CCFB70145
:100D500080E390E00E94C7069A9457CF8FEF9FEFF1
:100D600084CFFC010590615070400110D8F7809548
:100D700090958E0F9F1F0895FC0161507040019067
:100D80000110D8F7809590958E0F9F1F08950F93AF
:100D90001F93CF93DF93182F092FEB018B8181FDD8
:100DA00009C01FEF0FEF812F902FDF91CF911F917F
:100DB0000F91089582FF14C02E813F818C819D8107
:100DC000281739073CF4E881F981CF01019699830E
:100DD000888310838E819F8101969F838E83E3CFCA
:100DE000E885F985812F1995892BA1F3DACFFA01CE
:100DF000AA27283051F1203181F1E8946F936E7F5A
:100E00006E5F7F4F8F4F9F4FAF4FB1E03ED0B4E04A
:100E10003CD0670F781F891F9A1FA11D680F791F8B
:100E20008A1F911DA11D6A0F711D811D911DA11D9C
:100E300020D009F468943F912AE0269F11243019AC
:100E4000305D3193DEF6CF010895462F4770405D47
:100E50004193B3E00FD0C9F7F6CF462F4F70405DF6
:100E60004A3318F0495D31FD4052419302D0A9F751
:100E7000EACFB4E0A6959795879577956795BA954B
:100E8000C9F700976105710508959B01AC010A2E11
:100E900006945795479537952795BA95C9F7620FE8
:0E0EA000731F841F951FA01D0895F894FFCFA7
:100EAE000000000200000000C502000000005B69A7
:100EBE00646C655D2057616974696E6720746F207C
:100ECE00726563656976652061206368617261632E
:100EDE00746572005B72315D205072696E74696E5A
:100EEE00672072656164696E675F627566666572BA
:100EFE00005B77325D205072696E74696E67207781
:100F0E00726974696E675F62756666657200737486
:100F1E00617274696E670073746172742D6C69739B
:100F2E0074005B633A2025702C20703A2025702CBB
:100F3E00206E3A2025705D0A2000656E642D6C6966
:100F4E00737400427566666572207069656E6F0017
:100F5E004275666665722076756F746F0023232363
:100F6E002323232323232323232323232323232343
:100F7E002323232323232323232323232323232333
:100F8E002323232323232323232323232323230046
:100F9E00256320005D00456E71756575696E67206D
:100FAE00746865207461736B20696E207761697453
:100FBE00696E672071756575650056616C75652083
:100FCE00256320726561642066726F6D207468659A
:100FDE002072656164696E675F6275666665720A26
:100FEE000056616C7565202563207772697474658F
:100FFE006E20696E207468652077726974696E67F9
:0A100E005F627566666572200A00D5
:00000001FF
