:100000000C947C000C949D000C949D000C949D001D
:100010000C949D000C949D000C949D000C949D00EC
:100020000C949D000C949D000C949D000C949D00DC
:100030000C949D000C949D000C949D000C949D00CC
:100040000C949D000C94B2020C949D000C949D00A5
:100050000C949D000C949D000C949D000C949D00AC
:100060000C949D000C947A010C949D000C949D00BE
:100070000C949D000C949D000C949D000C949D008C
:100080000C949D000C949D000C949D000C949D007C
:100090000C949D000C949D000C949D000C949D006C
:1000A0000C949D000C949D000C949D000C949D005C
:1000B0000C949D000C949D000C949D000C949D004C
:1000C0000C949D000C949D000C949D000C949D003C
:1000D0000C949D000C949D000C949D000C949D002C
:1000E0000C949D000C949F000C94D4000C94DA02A4
:1000F0000C94AE010C94B80011241FBECFEFD1E2D6
:10010000DEBFCDBF00E00CBF13E0A0E0B2E0E6E848
:10011000FEE000E00BBF02C007900D92A833B107CC
:10012000D9F726E0A8E3B3E001C01D92A832B207D8
:10013000E1F70E94DD030C9441070C940000F89451
:100140008EE092E00E9470040E94FF020E94B303BE
:1001500081110BC078942FEF83ED90E32150804004
:100160009040E1F700C00000EACF0E94C303F2CF45
:10017000C4E3D2E0F8948091D8048F938091D7049F
:100180008F93DF93CF930E94560478949FEF23EDD3
:1001900080E3915020408040E1F700C000000F90C4
:1001A0000F900F900F90E6CFC1E5D2E0F8948091C8
:1001B000E8048F938091E7048F93DF93CF930E949D
:1001C000560478949FEF23ED80E3915020408040C7
:1001D000E1F700C000000F900F900F900F90E6CF56
:1001E0002F923F924F925F926F927F928F929F9247
:1001F000AF92BF92CF92DF92EF92FF920F931F9335
:10020000CF93DF930BB60F920CB60F920DB71EB7BC
:10021000C82FD92F08831983C62FD72F088119819A
:100220000DBF1EBF0F900CB60F900BB6DF91CF9194
:100230001F910F91FF90EF90DF90CF90BF90AF9004
:100240009F908F907F906F905F904F903F902F90F6
:100250000895C82FD92F088119810DBF1EBF0F9097
:100260000CB60F900BB6DF91CF911F910F91FF90BD
:10027000EF90DF90CF90BF90AF909F908F907F9046
:100280006F905F904F903F902F901895F89488E36F
:1002900093E00E94100290933E0380933D03892BCC
:1002A00041F00E94A50280913D0390913E030C9481
:1002B00029010E945104CF93DF93C0913D03D09157
:1002C0003E03BE0188E393E00E94370288E393E097
:1002D0000E94100290933E0380933D038C179D076C
:1002E00031F0BC01CE01DF91CF910C94F000DF9191
:1002F000CF9108951F920F920FB60F9211240BB653
:100300000F922F933F934F935F936F937F938F93AE
:100310009F93AF93BF93EF93FF93F8946091C600C0
:100320006D30D1F06A30C1F089EC94E00E94350361
:100330007894FF91EF91BF91AF919F918F917F91B1
:100340006F915F914F913F912F910F900BBE0F9046
:100350000FBE0F901F90189560E0E6CF7894A091A3
:100360003D03B0913E03109789F01296ED91FC91F8
:100370001397309759F014966D917D918D919C91C2
:1003800017971995A0913D03B0913E0381E05296D5
:100390008C9308950F931F93FC015383428304832E
:1003A000158326833783138612861186108682E092
:1003B000828B8EEA91E0DB018C9311979C931197CD
:1003C0001C9211971C9211971C9211971C921197D5
:1003D0001C9211971C9211971C9211971C921197C5
:1003E0001C9211971C9211971C9211971C921197B5
:1003F0001C9211971C9211971C9211971C921197A5
:100400001C9211971C9211971C9211971C92119794
:100410001C9267517109718360831F910F91089538
:10042000CF93DF93DC01ED91FC911197309799F018
:1004300014968C911497813091F0C085D1851196D6
:10044000DC93CE93DB87CA87815014968C931186F8
:10045000108613861286CF01DF91CF9108951396EF
:100460001C921E92129711961C921E92EDCFDB01E8
:100470001A962D913C911B97232B11F08FEF089525
:1004800018962D913C911997232BC1F7FC012481DB
:100490002223B9F00280F381E02D71876087DB01B0
:1004A0001B96FC93EE931A9719961C921E9218971E
:1004B000FC01738362832F5FDC0114962C9380E030
:1004C000089571836083738362831B967C936E931C
:1004D0001A9719961C921E9218972F5FDC0114969A
:1004E0002C9380E008950F931F93CF93DF93FC012B
:1004F000C081D18188E792E00E9470042097E9F0E2
:1005000003E812E089858F9388858F938B858F937D
:100510008A858F93DF93CF931F930F930E94560486
:100520000884D985C02DEDB7FEB738960FB6F8947C
:10053000FEBF0FBEEDBF209729F78BE992E0DF9158
:10054000CF911F910F910C9470048AE698E19093DB
:1005500089008093880082E080936F008CE0809314
:10056000810008951F920F920FB60F9211240BB6BF
:100570000F922F933F934F935F936F937F938F933C
:100580009F93AF93BF93EF93FF930E945B01FF9103
:10059000EF91BF91AF919F918F917F916F915F91FB
:1005A0004F913F912F910F900BBE0F900FBE0F9068
:1005B0001F9018958A3049F09091C00095FFFCCFAC
:1005C0008093C60090E080E008959091C00095FF70
:1005D000FCCF9DE09093C600EFCF9093C500809331
:1005E000C40086E08093C20088E98093C10008952A
:1005F0009091C00095FFFCCF8093C6000895809134
:10060000C00087FFFCCF8091C60008958091C00094
:10061000881F8827881F0895FC012081222351F01C
:1006200031969091C00095FFFCCF2093C600219198
:100630002111F7CF089580E092E0909325068093F2
:1006400024061092C50082E38093C40086E0809364
:10065000C20088E98093C1000895FC0113861286C8
:1006600015861486178616860895FC01F8948285EF
:100670009385DF01A80FB91F6C9301966AE070E0C3
:100680000E9429049387828786859785019697879C
:10069000868778940895FC01F89484859585DF0118
:1006A000A80FB91F2C911C9201966AE070E00E947D
:1006B00029049587848786859785019797878687FC
:1006C0007894822F0895CF92DF92EF92FF920F934A
:1006D0001F93CF93DF936C0184EA92E00E94700431
:1006E0008BE590E00E946A04F601868597851816CE
:1006F00019061CF5D0E0C0E08AE0E82EF12C07EDE9
:1007000012E0F601848595858C0F9D1FB7010E942C
:100710002904E80FF91F80811F928F931F930F9375
:100720000E94560421960F900F900F900F90F601A3
:1007300086859785C817D90724F38BED92E00E9430
:10074000700484EA92E0DF91CF911F910F91FF90A6
:10075000EF90DF90CF900C947004E1ECF0E080819A
:100760008068808308958091D7049091D804892B64
:1007700031F48DED92E00E9470040E945B0189ECDF
:1007800094E00C944B03CF93C82F8091E704909191
:10079000E8040A9731F06C2F89ED94E0CF910C9426
:1007A00035038AE093E00E9470040E945B016C2F85
:1007B00089ED94E0CF910C9435030F931F930E9421
:1007C0001B030E94AD0389EC94E00E942D0389ED88
:1007D00094E00E942D0300E010E098014FE950E002
:1007E00068EC74E089EE94E00E94CA0100E010E039
:1007F000980148EB50E068E474E08CEF95E00E94CB
:10080000CA0100E010E0980144ED50E06BEF75E0A4
:100810008FE096E00E94CA016CEF75E088E393E0F8
:100820000E9437026FE076E088E393E00E9437028F
:1008300069EE74E088E393E00E9437028FE692E06D
:100840000E9470040E94460190E080E01F910F9189
:10085000089597FB072E16F4009407D077FD09D072
:100860000E943D0407FC05D03EF4909581959F4F72
:100870000895709561957F4F0895AA1BBB1B51E1A8
:1008800007C0AA1FBB1FA617B70710F0A61BB70B00
:10089000881F991F5A95A9F780959095BC01CD01A5
:1008A000089581E090E0F8940C944107CF93DF9392
:1008B000CDB7DEB7AE014A5F5F4FFA01619171912A
:1008C000AF0180912406909125060E949B04DF9140
:1008D000CF91089560912406709125060C94B3067B
:1008E0000F931F93CF93DF93E0912406F091250699
:1008F0002381EC0110E000E021FD08C00FEF1FEFA5
:1009000014C01995892B11F00FEF1FEF8991609199
:10091000240670912506DB011896ED91FC9181115A
:10092000F0CF8AE01995892B49F7C801DF91CF9163
:100930001F910F9108952F923F924F925F926F9265
:100940007F928F929F92AF92BF92CF92DF92EF925F
:10095000FF920F931F93CF93DF9300D000D000D06E
:100960001F921F92CDB7DEB77C013B018A01FC01CB
:1009700017821682838181FFDDC1CE0101965C0161
:10098000F7019381F30193FD859193FF81913F01DD
:10099000882309F453C1853239F493FD859193FF7F
:1009A00081913F01853229F4B70190E00E94B3069E
:1009B000E7CF912C212C312CFFE1F31538F08B324D
:1009C00011F190F4803209F1833229F137FC3CC0F7
:1009D00020ED280F2A3050F536FE20C08AE0989E80
:1009E000200D1124922E06C08D3291F0803371F7C4
:1009F000689430F8F30193FD859193FF81913F0155
:100A00008111DACF21C0689431F8689432F8F2CFBE
:100A1000689433F8EFCF689434F8ECCFEAE02E9E78
:100A2000200D1124222E689435F8E4CF8E3229F45B
:100A300036FC04C1689436F8DDCF8C3619F468941E
:100A400037F8D8CF8836B1F2982F9F7D95549330E0
:100A5000E0F08336A1F18337C1F1833509F063C03B
:100A60002801F2E04F0E511CF801C080D180692DA1
:100A700070E036FC02C06FEF7FEFC6010E949D065A
:100A80004C01689437F882010AC00C5F1F4FFFE3E6
:100A9000F98388248394912C6501E89437F833FE18
:100AA0002DC0522C8114910471F5552009F468CFA2
:100AB000B70180E290E00E94B3065A94F6CFF801A5
:100AC000808189830E5F1F4FE4CF2801F2E04F0E33
:100AD000511CF801C080D180692D70E036FC02C045
:100AE0006FEF7FEFC6010E94A8064C018201D5CFAF
:100AF000B70180E290E00E94B3062A9428141904FA
:100B000009F0B0F7CECFF60137FC859137FE819121
:100B10006F01B70190E00E94B30651105A94F1E0C2
:100B20008F1A9108BFCF843619F0893609F077C043
:100B3000F80137FE6BC060817181828193810C5F07
:100B40001F4FF32DFF763F2E97FF09C0909580959C
:100B5000709561957F4F8F4F9F4F689437F82AE0CB
:100B600030E0A5010E94E306C82ECA188C2C432C45
:100B700036FE0CC0E89440F8C91440F434FE05C0B9
:100B800032FC03C0F32DFE7E4F2E892C44FEAAC0FA
:100B9000FE01EC0DF11D8081803309F09CC0242DF5
:100BA000297E422E842D8870582E43FCAAC040FE18
:100BB000A4C09C2C821418F42C0C922C981844FE7F
:100BC000A6C0B70180E390E00E94B30642FE09C0D0
:100BD00088E790E041FE02C088E590E0B7010E94FE
:100BE000B306C91408F49FC0CA94D12C9FEFC91A48
:100BF000D90ACA0CDB1CF60182916F01B70190E0A3
:100C00000E94B306AC14BD04B1F74FCF608171816F
:100C1000072E000C880B990B0E5F1F4F92CFD32C21
:100C2000E894D4F82AE030E08537E1F1232D297FDC
:100C3000D22E8F36A9F1F0F4883551F1F701868173
:100C400097812B960FB6F894DEBF0FBECDBFDF9114
:100C5000CF911F910F91FF90EF90DF90CF90BF90B9
:100C6000AF909F908F907F906F905F904F903F904C
:100C70002F900895803749F0883701F7D4FE02C0DD
:100C80006894D2F820E130E00DC06894D4F8F6CF33
:100C900034FE03C0822F8660D82E20E132E002C0ED
:100CA00028E030E0F801D7FE0FC0608171818281B9
:100CB00093810C5F1F4FA5010E94E306C82ECA183E
:100CC0003D2CE89437F852CF6081718190E080E04C
:100CD0000E5F1F4FF0CF42FC02C0839463CF83941A
:100CE000839460CF842D867809F45CCFF6CFB7016A
:100CF00080E290E00E94B30683948214C0F3512CEA
:100D00005ECF522C5818821408F459CFF8CF842D96
:100D1000867809F466CF8BE241FE80E247FC8DE2E3
:100D2000B70190E05CCFB70180E390E00E94B3068A
:100D30009A9457CF8FEF9FEF84CFFC0105906150BD
:100D400070400110D8F7809590958E0F9F1F0895E1
:100D5000FC016150704001900110D8F7809590958A
:100D60008E0F9F1F08950F931F93CF93DF93182F1C
:100D7000092FEB018B8181FD09C01FEF0FEF812F40
:100D8000902FDF91CF911F910F91089582FF14C092
:100D90002E813F818C819D81281739073CF4E881A1
:100DA000F981CF0101969983888310838E819F8179
:100DB00001969F838E83E3CFE885F985812F19956E
:100DC000892BA1F3DACFFA01AA27283051F120317B
:100DD00081F1E8946F936E7F6E5F7F4F8F4F9F4FCF
:100DE000AF4FB1E03ED0B4E03CD0670F781F891F11
:100DF0009A1FA11D680F791F8A1F911DA11D6A0FDF
:100E0000711D811D911DA11D20D009F468943F9191
:100E10002AE0269F11243019305D3193DEF6CF0190
:100E20000895462F4770405D4193B3E00FD0C9F756
:100E3000F6CF462F4F70405D4A3318F0495D31FDC3
:100E40004052419302D0A9F7EACFB4E0A695979516
:100E5000879577956795BA95C9F7009761057105EC
:100E600008959B01AC010A2E069457954795379536
:100E70002795BA95C9F7620F731F841F951FA01D90
:060E80000895F894FFCF75
:100E86000000000200000000DA02000000005B69BA
:100E9600646C655D2057616974696E6720746F20A4
:100EA6007265636569766520612063686172616356
:100EB600746572005B72315D2052656164696E67AC
:100EC6005F6275666665722073697A652025640AB5
:100ED600005B77325D2057726974696E675F627571
:100EE600666665722073697A65202564200A007338
:100EF60074617274696E670073746172742D6C69C3
:100F06007374005B633A2025702C20703A2025709C
:100F16002C206E3A2025705D0A2000656E642D6CCB
:100F260069737400232323232323232323232323C7
:100F3600232323232323232323232323232323237B
:100F4600232323232323232323232323232323236B
:100F560023232323232300256320005D005B67658D
:100F660074436861725D456E71756575696E67205B
:100F7600746865207461736B20696E20776169748B
:100F8600696E67207175657565005B707574436879
:100F960061725D456E71756575696E672074686509
:100FA600207461736B20696E2077616974696E675E
:080FB6002071756575650000EE
:00000001FF
